:020000040000FA
:060000000A128A110E280D
:10000800FE00030EF2000408F3000A08F4000A12C6
:100018008A1128280A128A11112883133830FD0002
:100028000130FE00C730FF002D3084000A128A110B
:10003800B8210A128A11B801F501F601F701F80191
:1000480083010A128A11A0290B1D2B282C28362877
:100058000B110130F0007008831203138507643018
:1000680081000B110B1C39283A287C2883120313B2
:1000780006183F2840284328F801F80A4D28780335
:10008800031D472848284D28F8010130F000700862
:1000980087078618502851285428F701F70A5C2842
:1000A8007703031D582859285C28F7010130870277
:1000B8000B107C2876082D3E8400831300088800E6
:1000C80009140130F0007008B707912875082D3E13
:1000D80084008313000888008914652838082D3E99
:1000E80084008313000888000915B701B70A91280E
:1000F800831203133708F000F1017108003A03195D
:10010800862891287008013A03195E28033A0319D2
:100118006A28013A03197228912874088A0073081A
:100128008400720E8300FE0E7E0E090083120313F4
:10013800A601A11FA028A128A828A009A109A00AF2
:100148000319A10AA601A60AA31FAB28AC28B52843
:10015800A209A309A20A0319A30A0130A4002408CA
:10016800A606A701A801200821040319BC28BD2858
:10017800F428A501A50ACB2801300310A00DA10D74
:10018800FF3E031DC1280130A4002408A507A11FB4
:10019800CE28CF28C02801300310A70DA80DFF3E98
:1001A800031DD02821082302031DDC282008220271
:1001B800031CDF28E028E7282008A2022108031CE6
:1001C800A303A302271401300310A10CA00CFF3EC7
:1001D800031DE8280130A502031DF328F428CF28C1
:1001E80026080319F828F928FE28A709A809A70A44
:1001F8000319A80A2808A1002708A00008006430ED
:100208007902031C08290929312964308312031350
:10021800A0000030A1007908A900AA012908A200BD
:100228002A08A3000A128A119A200A128A11831234
:1002380003132008AB002B08F6009C30A9002908FE
:10024800A00076080A128A1189210A128A117907F0
:1002580083120313AA002A08F9000A307902031C42
:100268003629372960290A3083120313A000003089
:10027800A1007908A900AA012908A2002A08A30058
:100288000A128A119A200A128A118312031320086B
:10029800AB002B08F500F630A9002908A000750866
:1002A8000A128A1189210A128A1179078312031303
:1002B800AA002A08F9006629790883120313A900FD
:1002C8002908B800080083160317880189018316D6
:1002D8000313850187018801033086008312031305
:1002E800850186018701880189010330831603137C
:1002F800960003309500543081000F1481138B173A
:100308008B158B160B100B11080083120313A30017
:10031800A201231C9029912995292008A1002108D0
:10032800A2070310A00D0310A30C2308031D9D2989
:100338009E298D29220808000A128A1167210A12AB
:100348008A11831203130708AC002C08F9000A125B
:100358008A1103210A128A11A5290A128A110E2864
:100368007E088A007F0882000A128A11B4210A12C4
:100378008A118000840A04087D0603190034FF0AE4
:100388000319FE0AB8293F3406345B344F34663407
:0C0398006D347D3407347F346734013449
:04400E00D420FF3F7C
:00000001FF
