:020000040000FA
:060000000A128A110C280F
:10000800FE00030EF2000A08F3000A128A11C42F38
:100018000A128A110F2883120313E601E701E80187
:10002800E901EA01EB01EC01ED01EE01EF018301C9
:100038000A128A15AC2E831203132D088039B200D8
:100048003208B7002D08B2003207B3003308BD00EC
:10005800AC1F2F28302831283D143D0803193528B6
:10006800362845283D0A031D3A283B2843280030F6
:10007800AD000030AC000030AB000030AA00AC1777
:100088004D280030AD000030AC000030AB0000302F
:10009800AA0031088039B2003208B7063108B20028
:1000A8003207B3003308BC00B01F5B285C285D280A
:1000B8003C143C0803196128622871283C0A031D76
:1000C800662867286F280030B1000030B000003083
:1000D800AF000030AE00B01779280030B100003012
:1000E800B0000030AF000030AE003C0803197D2896
:1000F8007E2883283D08031D822883288C28003009
:10010800AD000030AC000030AB000030AA007F2BFF
:100118002A08B2003208F40030080A128A15D326D9
:100128000A128A11750883120313C3007408C200E7
:100138004208B200B301B401B5013508BB00340868
:10014800BA003308B9003208B8004308B200B30156
:10015800B401B5013508C1003408C0003308BF0038
:100168003208BE002B08B2003208F4002F080A1229
:100178008A15D3260A128A11750883120313C3003D
:100188007408C2004208B200B301B401B5013208D4
:10019800B807330803110318013E0319D428B90717
:1001A800340803110318013E0319DB28BA07350880
:1001B80003110318013E0319E228BB074308B200E4
:1001C800B301B401B5013208BE073308031103189F
:1001D800013E0319F028BF07340803110318013E34
:1001E8000319F728C007350803110318013E03193E
:1001F800FE28C1072C08B2003208F4002E080A12A3
:100208008A15D3260A128A11750883120313C300AC
:100218007408C2004208B200B301B401B501320843
:10022800B807330803110318013E03191C29B9073D
:10023800340803110318013E03192329BA073508A6
:1002480003110318013E03192A29BB074308B2000A
:10025800B301B401B5013208BE073308031103180E
:10026800013E03193829BF07340803110318013E5A
:1002780003193F29C007350803110318013E031964
:100288004629C1070830B2000310B80DB90DBA0DE0
:10029800BB0DB20B48292B08B2003208F4002E0817
:1002A8000A128A15D3260A128A11750883120313B3
:1002B800C3007408C2004208B2004308B300B40186
:1002C800B5013208B807330803110318013E0319B2
:1002D8006E29B907340803110318013E031975295B
:1002E800BA07350803110318013E03197C29BB0717
:1002F8002A08B2003208F4002F080A128A15D326F9
:100308000A128A11750883120313C3007408C20005
:100318004208B2004308B300B401B5013208B80777
:10032800330803110318013E03199B29B907340840
:1003380003110318013E0319A229BA07350803114E
:100348000318013E0319A929BB070830B20003109E
:10035800B80DB90DBA0DBB0DB20BAB292A08B20006
:100368003208F4002E080A128A15D3260A128A11B6
:10037800750883120313C3007408C2004208B20050
:100388004308B300B401B5013208B80733080311B4
:100398000318013E0319D129B907340803110318BA
:1003A800013E0319D829BA07350803110318013E7D
:1003B8000319DF29BB072B08B2003208F400300804
:1003C8000A128A15D3260A128A1175088312031392
:1003D800C3007408C2004208B2004308B300B40165
:1003E800B5013208BE07330803110318013E03198B
:1003F800FE29BF07340803110318013E0319052A13
:10040800C007350803110318013E03190C2AC10758
:100418002C08B2003208F4002F080A128A15D326D5
:100428000A128A11750883120313C3007408C200E4
:100438004208B2004308B300B401B5013208BE0750
:10044800330803110318013E03192B2ABF07340888
:1004580003110318013E0319322AC0073508031196
:100468000318013E0319392AC1072C08B2003208C3
:10047800F40030080A128A15D3260A128A11750860
:1004880083120313C3007408C2004208B200430871
:10049800B300B401B50108300310B20DB30DB40DAB
:1004A800B50DFF3E031D502A3208BE07330803115D
:1004B8000318013E0319612ABF0734080311031802
:1004C800013E0319682AC007350803110318013EC5
:1004D80003196F2AC1073808B2003908B3003A086F
:1004E800B4003B08B50018300310B50CB40CB30CBD
:1004F800B20CFF3E031D782A3208BE0733080311E9
:100508000318013E0319892ABF0734080311031889
:10051800013E0319902AC007350803110318013E4C
:100528000319972AC1070830B2000310B80DB90D96
:10053800BA0DBB0DB20B992A3D083C07B200B301B6
:10054800B30D3208823EC20033080318013EFF3E55
:10055800C300CB2A0130B2000310BE0DBF0DC00D81
:10056800C10DB20BB02ABB1FBA2ABB2ABC2A3E1443
:100578000130B2000310B80DB90DBA0DBB0DB20BA6
:10058800BE2AFF30C2070318C30AFF30C307C01FC3
:10059800CE2ACF2AAE2ABC01BB1FD32AD42AF02ADE
:1005A800FF303805B200FF303905B300FF303A0597
:1005B800B4007F303B05B5003508340433043204F9
:1005C8000319E72AE82AEB2ABC01BC0AF02A3E1CD8
:1005D800EE2AEF2AF02AE82A3C080319F42AF52A19
:1005E800262B0130BE07003003180130BF0700304A
:1005F80003180130C007003003180130C107411C3F
:10060800062B072B262B3E08B2003F08B3004008F4
:10061800B4004108B5000130B600350DB50CB40C76
:10062800B30CB20CB60B112B3508C1003408C0004E
:100638003308BF003208BE000130C2070318C30ADE
:100648000030C3074308803AFF0080307F02031D53
:100658002F2BFF304202031C322B332B3E2B7F30D3
:1006680083120313C1008030C0000030BF00003087
:10067800BE00732B831203134308803AFF008030B7
:100688007F02031D492B0130420203184C2B4D2BCE
:10069800592B003083120313C1000030C000003012
:1006A800BF000030BE00B701732B8312031342084A
:1006B800B2003208BD00FF30BE05FF30BF057F30F5
:1006C800C0050030C1053D1C6A2B6B2B6C2BC01775
:1006D8003D08B2000310320CB3003308C1003708DC
:1006E800B2003208C1044108AD004008AC003F0820
:1006F800AB003E08AA00080083120313470880399C
:10070800CC004C08D4004708CC004C07CD004D085D
:10071800D600C61F902B912B922B561456080319FE
:10072800962B972BA72B560A031D9B2B9C2BA42B90
:100738000030C7000030C6000030C5000030C400DB
:10074800C617C701AF2B0030C7000030C600003005
:10075800C5000030C4004B088039CC004C08D500D7
:10076800550854060319B92BBA2BBB2B54174B0841
:10077800CC004C07CD004D08D500CA1FC42BC52B93
:10078800C62B551455080319CA2BCB2BDB2B550A3E
:10079800031DCF2BD02BD82B0030CB000030CA0044
:1007A8000030C9000030C800CA17CB01E32B003065
:1007B800CB000030CA000030C9000030C80056081D
:1007C80055020318E82BE92B2D2C541FEC2BED2B8D
:1007D800F12B8030CC004C08D4065608CC004C08CD
:1007E800D7005508CC004C08D6005708CC004C0858
:1007F800D5004408CC004C08D7004808CC004C0869
:10080800C4005708CC004C08C8004508CC004C0868
:10081800D7004908CC004C08C5005708CC004C0844
:10082800C9004608CC004C08D7004A08CC004C0840
:10083800C6005708CC004C08CA004708CC004C0832
:10084800D7004B08CC004C08C7005708CC004C0810
:10085800CB00D7015508CC00CD014D08CF00560874
:100868004C02CE00031CCF034F08803AFF008030B3
:100878007F02031D412C1A304E02031C442C452CC8
:10088800822C831203134708460445044404031DBD
:100898004E2C502C0130512C0030CC004C08D70085
:1008A8000030C7000030C6000030C5000030C4006A
:1008B8005508CC004C08D6008A2C571C642C652C93
:1008C8006E2C5708CC0003104C0C0138CD004D0895
:1008D800D700702C0310D70C441C732C742C752C67
:1008E800D7170130CC00470DC70CC60CC50CC40C7B
:1008F800CC0B772C0130CC004C08D607831203139D
:1009080055085602031C892C8A2C612C541B8D2CEB
:100918008E2CD92C5608031D922C932C9C2C00301D
:10092800C7000030C6000030C5000030C400072EE4
:100938004808C407490803110318013E0319A52CE8
:10094800C5074A0803110318013E0319AC2CC60752
:100958004B0803110318013E0319B32CC707471CA2
:10096800B62CB72C8D2D571CBA2CBB2CC42C570871
:10097800CC0003104C0C0138CD004D08D700C62C14
:100988000310D70C441CC92CCA2CCB2CD717013008
:10099800CC00470DC70CC60CC50CC40CCC0BCD2C19
:1009A8000130CC004C08D6078D2D4708803AFF004F
:1009B8004B08803A7F02031DEB2C4A084602031DB0
:1009C800EB2C49084502031DEB2C48084402031888
:1009D800EE2CEF2C472DFF30CC00FF30CD00FF3040
:1009E800CE00FF30CF004808D0004908D1004A089F
:1009F800D2004B08D3004408D0024508031C450F19
:100A0800062D072DD1024608031C460F0C2D0D2D6F
:100A1800D2024708031C470F122D132DD30250088A
:100A2800CC0751080318510F1A2D1B2DCD0752085A
:100A38000318520F202D212DCE0753080318530AEF
:100A4800CF074F08C7004E08C6004D08C5004C0820
:100A5800C4008030CC004C08D406D709D70A570800
:100A6800031D372D382D552D0130C40700300318CC
:100A78000130C507003003180130C60700300318DD
:100A88000130C707552D4808C4024908031C490FFF
:100A9800C5024A08031C4A0FC6024B08031C4B0F29
:100AA800C7024708460445044404031D5C2D5D2D18
:100AB800892D5708031D612D622D892D0030C7002F
:100AC8000030C6000030C5000030C400072E0130D9
:100AD800CC000310C40DC50DC60DC70DCC0B6D2D74
:100AE800D71F772D782D792D4414571C7C2D7D2DFB
:100AF800802D0314D70D822D0310D70D5608031926
:100B0800862D872D892D0130D602C61F8C2D8D2D5F
:100B18006B2DD501D71F912D922DA02D57087F3908
:100B28000319972D982D9B2DD501D50AA02D441C6E
:100B38009E2D9F2DA02D982D55080319A42DA52D68
:100B4800D92D0130C407003003180130C507003023
:100B580003180130C607003003180130C707471CC7
:100B6800B62DB72DD92D4408CC004508CD00460830
:100B7800CE004708CF000130D0004F0DCF0CCE0C6F
:100B8800CD0CCC0CD00BC12D4F08C7004E08C600A9
:100B98004D08C5004C08C400560A0319D42DD52D9C
:100BA800D92D0130CC004C08D607560A0319DD2D83
:100BB800DE2DE32D5608031DE22DE32DF12D003027
:100BC800C7000030C6000030C5000030C400560819
:100BD800031DEF2DF02DF12DD401561CF42DF52D0C
:100BE800F72DC617FB2D7F30CC004C08C6055608DC
:100BF800CC0003104C0CCD004D08C700D41F052EA7
:100C0800062E072EC71708002F2F6108F400620868
:100C1800F5000030F51BFF30F600F70001300A122E
:100C28008A1544270A128A11770883120313B10020
:100C38007608B0007508AF007408AE003E30AD000D
:100C48007C30AC00ED30AB009130AA000A128A115A
:100C58001F200A128A11831203132D08CB002C08B7
:100C6800CA002B08C9002A08C8004230C7007830DB
:100C7800C6000030C5000030C4000A128A11802363
:100C88000A128A11831203134708DB004608DA00A8
:100C98004508D9004408D8000A128A1148270A12C0
:100CA8008A11831203135908EB005808EA006A08EE
:100CB80095001F08C3390C389F0020308312031396
:100CC800E300E30B652E0000831203139F14472FE4
:100CD8006108F4006208F5000030F51BFF30F600EB
:100CE800F70001300A128A1544270A128A11770878
:100CF80083120313B1007608B0007508AF007408BA
:100D0800AE003C30AD008130AC006F30AB0000303D
:100D1800AA000A128A111F200A128A1183120313C9
:100D28002D08CB002C08CA002B08C9002A08C800C7
:100D38004030C7000030C6000030C5000030C40095
:100D48000A128A1180230A128A1183120313470890
:100D5800DB004608DA004508D9004408D8000A1222
:100D68008A1148270A128A11831203135908ED00C1
:100D78005808EC0008081F08C33908389F002030BD
:100D880083120313E300E30BC72E0000831203133F
:100D98009F14472F6108F4006208F5000030F51B26
:100DA800FF30F600F70001300A128A1544270A12AC
:100DB8008A11770883120313B1007608B00075080A
:100DC800AF007408AE003E30AD007C30AC00ED30B2
:100DD800AB009130AA000A128A111F200A128A1148
:100DE800831203132D08CB002C08CA002B08C90056
:100DF8002A08C8004230C7007830C6000030C50055
:100E08000030C4000A128A1180230A128A11831240
:100E180003134708DB004608DA004508D9004408F0
:100E2800D8000A128A1148270A128A11831203135A
:100E38005908E9005808E80068089B00C3309F0576
:100E4800203083120313E300E30B282F00008312E2
:100E580003139F14472F831203131F0CE300630C23
:100E68000F39E400E5016508003A03193C2F472FC4
:100E78006408003A0319092E023A0319CE2E013AE2
:100E880003196C2E472F08000310831203135A0D01
:100E98005B0DDC005C08F9007908031D542F552F01
:100EA8005E2F0030DB000030DA000030D90000305F
:100EB800D800C32F5808DC005908DD005A08DE00A6
:100EC8005B08DF001F300310DF0CDE0CDD0CDC0CD0
:100ED800FF3E031D672F5C08E0006008F800DA1782
:100EE800FF30D805FF30D905FF30DA050030DB05C3
:100EF8009630F902F91F812F822F9C2F7908803AAA
:100F0800973E0318882F892F8A2F552F01300310F9
:100F1800DB0CDA0CD90CD80CFF3E031D8B2F0130EB
:100F2800DC005C08F907031D9A2F9B2F8A2FB32F2B
:100F380020307902031CA12FA22FAE2F552F01308C
:100F4800DC000310D80DD90DDA0DDB0DDC0BA52F55
:100F58000130F9027908031DB22FB32FA32F7808A7
:100F68000319B72FB82FC32FD809D909DA09DB0914
:100F7800D80A0319D90A0319DA0A0319DB0A08007F
:100F8800831203130C1FC92FCA2FD22F1E08F0007B
:100F9800F1017008EE007108EF000C130B1DD52F3E
:100FA800D62FF42FF63081000130E6070318E70A40
:100FB8000030E7076708803AF0006D08803A700251
:100FC800031DE82F6C086602031CEB2FEC2FF02F93
:100FD800831203138711F32F8312031387150B1141
:0E0FE80073088A00720E8300FE0E7E0E090052
:101D58000A128A15FC260A128A15831203136708C9
:101D6800803AFF0080307F02031DBC2E14306602CB
:101D7800031CBF2EC02EC42E83120313E601E701F5
:101D8800831203136F08E2006E08E1000A128A1139
:101D980008260A128A15B12E0A128A110C288312F3
:101DA8000313A400A001A1017408F600F701760846
:101DB800A2007708A300241CE22EE32EE92E2208B5
:101DC800A0070318A10A2308A10701300310A20DD8
:101DD800A30DFF3E031DEA2E0310A40C2408031DC7
:101DE800F62EF72EDF2E2108F5002008F400080053
:101DF8000F3083160317880089010F3083160313E9
:101E080085008701880183120313850187018316E2
:101E180003138101F6308312031381008B170B170C
:101E28008B160B11831603130F140F178F160F122F
:101E3800831203138C1026309200C3309F051F08AD
:101E4800C33908389F002130F400F40B292F83167A
:101E580003130C17831203130C131F141F083F39A5
:101E680040389F00831603139F131F129F12FA30E6
:101E780092000C308312031397000F309D00080066
:101E880083120313A400240803194B2F4C2F602F2F
:101E9800F71F4F2F502F602F7409A6007509A70050
:101EA8007609A8007709A900A60A0319A70A031941
:101EB800A80A0319A90A682F7708A9007608A800B4
:101EC8007508A7007408A6007708760475047404DA
:101ED800031D6F2F702F792F0030F7000030F600A8
:101EE8000030F5000030F400FF2F9630A0002008E5
:101EF800A5008B2F0130A0002008A5070130031092
:101F0800A90CA80CA70CA60CFF3E031D832FFE30BE
:101F18002905031D902F912F7E2FAD2F0130A00092
:101F28002008A5070130A607003003180130A707CD
:101F3800003003180130A807003003180130A90742
:101F480001300310A90CA80CA70CA60CFF3E031D1A
:101F5800A52FFF302905031DB22FB32F922FBF2FB6
:101F68000130A5020130A0000310A60DA70DA80D91
:101F7800A90DA00BB82FA81BC22FC32FC92F023041
:101F880025020318C82FC92FB42F2518CC2FCD2F01
:101F9800D52FFF30A605FF30A7057F30A805FF30F5
:101FA800A9050310A50C2508A000A101A201A30101
:101FB80018300310A00DA10DA20DA30DFF3E031DA7
:101FC800DD2F2008A6042108A7042208A804230856
:101FD800A90424080319F12FF22FF72FF71FF52F63
:101FE800F62FF72FA9172908F7002808F600270861
:081FF800F5002608F4000800C2
:04400E00D420FF3F7C
:00000001FF
