:020000040000FA
:060000000A128A110C280F
:10000800FE00030EF1000A08F2000A128A15A62E55
:100018000A128A110F28F801F901FA018312031351
:10002800E801E901EA01EB0183010A128A11E32FD1
:10003800831203132D088039B2003208B7002D0847
:10004800B2003207B3003308BD00AC1F2C282D289E
:100058002E283D143D0803193228332842283D0A2A
:10006800031D3728382840280030AD000030AC0088
:100078000030AB000030AA00AC174A280030AD00B1
:100088000030AC000030AB000030AA0031088039E5
:10009800B2003208B7063108B2003207B30033089D
:1000A800BC00B01F582859285A283C143C0803198A
:1000B8005E285F286E283C0A031D632864286C2884
:1000C8000030B1000030B0000030AF000030AE00AA
:1000D800B01776280030B1000030B0000030AF0013
:1000E8000030AE003C0803197A287B2880283D0898
:1000F800031D7F28802889280030AD000030AC001F
:100108000030AB000030AA007C2B2A08B20032086D
:10011800F30030080A128A157D260A128A1174081B
:1001280083120313C3007308C2004208B200B3016C
:10013800B401B5013508BB003408BA003308B9006A
:100148003208B8004308B200B301B401B50135085C
:10015800C1003408C0003308BF003208BE002B08B5
:10016800B2003208F3002F080A128A157D260A12F7
:100178008A11740883120313C3007308C20042086B
:10018800B200B301B401B5013208B807330803114E
:100198000318013E0319D128B907340803110318BD
:1001A800013E0319D828BA07350803110318013E80
:1001B8000319DF28BB074308B200B301B401B50136
:1001C8003208BE07330803110318013E0319ED284E
:1001D800BF07340803110318013E0319F428C007A8
:1001E800350803110318013E0319FB28C1072C0821
:1001F800B2003208F3002E080A128A157D260A1268
:100208008A11740883120313C3007308C2004208DA
:10021800B200B301B401B5013208B80733080311BD
:100228000318013E03191929B907340803110318E3
:10023800013E03192029BA07350803110318013EA6
:1002480003192729BB074308B200B301B401B5015C
:100258003208BE07330803110318013E0319352974
:10026800BF07340803110318013E03193C29C007CE
:10027800350803110318013E03194329C107083043
:10028800B2000310B80DB90DBA0DBB0DB20B45295C
:100298002B08B2003208F3002E080A128A157D26B0
:1002A8000A128A11740883120313C3007308C20068
:1002B8004208B2004308B300B401B5013208B807D8
:1002C800330803110318013E03196B29B9073408D1
:1002D80003110318013E03197229BA0735080311DF
:1002E8000318013E03197929BB072A08B20032080E
:1002F800F3002F080A128A157D260A128A1174083B
:1003080083120313C3007308C2004208B2004308F3
:10031800B300B401B5013208B80733080311031854
:10032800013E03199829B907340803110318013E3F
:1003380003199F29BA07350803110318013E031949
:10034800A629BB070830B2000310B80DB90DBA0DC5
:10035800BB0DB20BA8292A08B2003208F3002E08F8
:100368000A128A157D260A128A1174088312031349
:10037800C3007308C2004208B2004308B300B401C6
:10038800B5013208B807330803110318013E0319F1
:10039800CE29B907340803110318013E0319D529DA
:1003A800BA07350803110318013E0319DC29BB07F6
:1003B8002B08B2003208F30030080A128A157D268D
:1003C8000A128A11740883120313C3007308C20047
:1003D8004208B2004308B300B401B5013208BE07B1
:1003E800330803110318013E0319FB29BF0734081A
:1003F80003110318013E0319022AC0073508031127
:100408000318013E0319092AC1072C08B200320853
:10041800F3002F080A128A157D260A128A11740819
:1004280083120313C3007308C2004208B2004308D2
:10043800B300B401B5013208BE073308031103182D
:10044800013E0319282ABF07340803110318013E87
:1004580003192F2AC007350803110318013E031991
:10046800362AC1072C08B2003208F30030080A12F5
:100478008A157D260A128A11740883120313C30091
:100488007308C2004208B2004308B300B401B501C2
:1004980008300310B20DB30DB40DB50DFF3E031DAA
:1004A8004D2A3208BE07330803110318013E031909
:1004B8005E2ABF07340803110318013E0319652A91
:1004C800C007350803110318013E03196C2AC10738
:1004D8003808B2003908B3003A08B4003B08B50040
:1004E80018300310B50CB40CB30CB20CFF3E031D4E
:1004F800752A3208BE07330803110318013E031991
:10050800862ABF07340803110318013E03198D2AF0
:10051800C007350803110318013E0319942AC107BF
:100528000830B2000310B80DB90DBA0DBB0DB20BEF
:10053800962A3D083C07B200B301B30D3208823E4B
:10054800C20033080318013EFF3EC300C82A013029
:10055800B2000310BE0DBF0DC00DC10DB20BAD2A08
:10056800BB1FB72AB82AB92A3E140130B2000310BB
:10057800B80DB90DBA0DBB0DB20BBB2AFF30C207BF
:100588000318C30AFF30C307C01FCB2ACC2AAB2AE3
:10059800BC01BB1FD02AD12AED2AFF303805B20092
:1005A800FF303905B300FF303A05B4007F303B0512
:1005B800B50035083404330432040319E42AE52A63
:1005C800E82ABC01BC0AED2A3E1CEB2AEC2AED2ADB
:1005D800E52A3C080319F12AF22A232B0130BE0729
:1005E800003003180130BF07003003180130C0077E
:1005F800003003180130C107411C032B042B232BA7
:100608003E08B2003F08B3004008B4004108B500F6
:100618000130B600350DB50CB40CB30CB20CB60BEA
:100628000E2B3508C1003408C0003308BF0032085B
:10063800BE000130C2070318C30A0030C3074308CD
:10064800803AFF0080307F02031D2C2BFF304202CE
:10065800031C2F2B302B3B2B7F3083120313C1003D
:100668008030C0000030BF000030BE00702B831205
:1006780003134308803AFF0080307F02031D462B96
:10068800013042020318492B4A2B562B00308312A3
:100698000313C1000030C0000030BF000030BE00AE
:1006A800B701702B831203134208B2003208BD0051
:1006B800FF30BE05FF30BF057F30C0050030C105E3
:1006C8003D1C672B682B692BC0173D08B20003102F
:1006D800320CB3003308C1003708B2003208C10435
:1006E8004108AD004008AC003F08AB003E08AA0036
:1006F80008008312031347088039CC004C08D40043
:100708004708CC004C07CD004D08D600C61F8D2BDE
:100718008E2B8F2B561456080319932B942BA42B2E
:10072800560A031D982B992BA12B0030C7000030C7
:10073800C6000030C5000030C400C617C701AC2B86
:100748000030C7000030C6000030C5000030C400CB
:100758004B088039CC004C08D500550854060319BD
:10076800B62BB72BB82B54174B08CC004C07CD0031
:100778004D08D500CA1FC12BC22BC32B55145508D1
:100788000319C72BC82BD82B550A031DCC2BCD2BEF
:10079800D52B0030CB000030CA000030C900003033
:1007A800C800CA17CB01E02B0030CB000030CA00CC
:1007B8000030C9000030C800560855020318E52B60
:1007C800E62B2A2C541FE92BEA2BEE2B8030CC0089
:1007D8004C08D4065608CC004C08D7005508CC0065
:1007E8004C08D6005708CC004C08D5004408CC006B
:1007F8004C08D7004808CC004C08C4005708CC0067
:100808004C08C8004508CC004C08D7004908CC0063
:100818004C08C5005708CC004C08C9004608CC0055
:100828004C08D7004A08CC004C08C6005708CC0032
:100838004C08CA004708CC004C08D7004B08CC002D
:100848004C08C7005708CC004C08CB00D701550806
:10085800CC00CD014D08CF0056084C02CE00031C39
:10086800CF034F08803AFF0080307F02031D3E2CE3
:100878001A304E02031C412C422C7F2C8312031386
:100888004708460445044404031D4B2C4D2C0130F5
:100898004E2C0030CC004C08D7000030C700003088
:1008A800C6000030C5000030C4005508CC004C0814
:1008B800D600872C571C612C622C6B2C5708CC0057
:1008C80003104C0C0138CD004D08D7006D2C0310D7
:1008D800D70C441C702C712C722CD7170130CC000B
:1008E800470DC70CC60CC50CC40CCC0B742C0130BE
:1008F800CC004C08D6078312031355085602031C74
:10090800862C872C5E2C541B8A2C8B2CD62C5608B4
:10091800031D8F2C902C992C0030C7000030C60086
:100928000030C5000030C400042E4808C407490838
:1009380003110318013E0319A22CC5074A08031125
:100948000318013E0319A92CC6074B080311031805
:10095800013E0319B02CC707471CB32CB42C8A2DB1
:10096800571CB72CB82CC12C5708CC0003104C0CC2
:100978000138CD004D08D700C32C0310D70C441CF8
:10098800C62CC72CC82CD7170130CC00470DC70C74
:10099800C60CC50CC40CCC0BCA2C0130CC004C08BE
:1009A800D6078A2D4708803AFF004B08803A7F0215
:1009B800031DE82C4A084602031DE82C4908450295
:1009C800031DE82C480844020318EB2CEC2C442D9A
:1009D800FF30CC00FF30CD00FF30CE00FF30CF001D
:1009E8004808D0004908D1004A08D2004B08D30073
:1009F8004408D0024508031C450F032D042DD102DD
:100A08004608031C460F092D0A2DD2024708031C6D
:100A1800470F0F2D102DD3025008CC07510803188B
:100A2800510F172D182DCD0752080318520F1D2DE1
:100A38001E2DCE0753080318530ACF074F08C700C7
:100A48004E08C6004D08C5004C08C4008030CC00D4
:100A58004C08D406D709D70A5708031D342D352D5D
:100A6800522D0130C407003003180130C50700308B
:100A780003180130C607003003180130C707522D8C
:100A88004808C4024908031C490FC5024A08031C48
:100A98004A0FC6024B08031C4B0FC70247084604FF
:100AA80045044404031D592D5A2D862D5708031D4E
:100AB8005E2D5F2D862D0030C7000030C600003047
:100AC800C5000030C400042E0130CC000310C40D52
:100AD800C50DC60DC70DCC0B6A2DD71F742D752DEE
:100AE800762D4414571C792D7A2D7D2D0314D70D9E
:100AF8007F2D0310D70D56080319832D842D862DBD
:100B08000130D602C61F892D8A2D682DD501D71F21
:100B18008E2D8F2D9D2D57087F390319942D952DD6
:100B2800982DD501D50A9D2D441C9B2D9C2D9D2DBE
:100B3800952D55080319A12DA22DD62D0130C407D6
:100B4800003003180130C507003003180130C6070C
:100B5800003003180130C707471CB32DB42DD62D1C
:100B68004408CC004508CD004608CE004708CF0011
:100B78000130D0004F0DCF0CCE0CCD0CCC0CD00BCF
:100B8800BE2D4F08C7004E08C6004D08C5004C08CA
:100B9800C400560A0319D12DD22DD62D0130CC0010
:100BA8004C08D607560A0319DA2DDB2DE02D560816
:100BB800031DDF2DE02DEE2D0030C7000030C600EC
:100BC8000030C5000030C4005608031DEC2DED2D83
:100BD800EE2DD401561CF12DF22DF42DC617F82D4B
:100BE8007F30CC004C08C6055608CC0003104C0CCE
:100BF800CD004D08C700D41F022E032E042EC717A0
:100C0800080083120313E700102F6708E300E401CC
:100C1800E501E6016608F6006508F5006408F400D9
:100C28006308F30001300A128A1127270A128A1171
:100C3800760883120313B1007508B0007408AF007A
:100C48007308AE003E30AD007C30AC00ED30AB0038
:100C58009130AA000A128A111C200A128A118312E2
:100C680003132D08CB002C08CA002B08C9002A083A
:100C7800C8004230C7007830C6000030C5000030D8
:100C8800C4000A128A117D230A128A1183120313DF
:100C98004708DB004608DA004508D9004408D800B0
:100CA8000A128A1584270A128A1183120313590813
:100CB800EB005808EA006A0895001F08C3390C3889
:100CC8009F00203083120313E300E30B692E00001A
:100CD800831203139F14262F0A30F3000030F40008
:100CE8006708E300E4016308F5006408F6000A12E7
:100CF8008A151B270A128A11730883120313E50049
:100D08006508F9000630790203188B2E8C2E902E78
:100D18000530E3006308F90019307902031C952EA9
:100D2800962E9A2E1930E3006308F90067088800A8
:100D38001F08C33908389F00203083120313E300CB
:100D4800E30BA42E0000831203139F14262F6708B9
:100D5800E300E401E501E6016608F6006508F50030
:100D68006408F4006308F30001300A128A11272787
:100D78000A128A11760883120313B1007508B000AD
:100D88007408AF007308AE003E30AD007C30AC0094
:100D9800ED30AB009130AA000A128A111C200A1209
:100DA8008A11831203132D08CB002C08CA002B08C4
:100DB800C9002A08C8004230C7007830C600003091
:100DC800C5000030C4000A128A117D230A128A1154
:100DD800831203134708DB004608DA004508D900E8
:100DE8004408D8000A128A1584270A128A11831225
:100DF80003135908E9005808E80068089B00C33045
:100E08009F05203083120313E300E30B092F000032
:100E1800831203139F14262F1F0CE300630C0F3952
:100E2800E400E5016508003A03191B2F262F640822
:100E3800003A0319092E023A0319AB2E013A031995
:100E4800702E262F080083120313A4002408031908
:100E58002E2F2F2F432FF61F322F332F432F730997
:100E6800A6007409A7007509A8007609A900A60AB2
:100E78000319A70A0319A80A0319A90A4B2F760808
:100E8800A9007508A8007408A7007308A6007608CA
:100E9800750474047304031D522F532F5C2F003004
:100EA800F6000030F5000030F4000030F300E22FC7
:100EB8009630A0002008A5006E2F0130A000200861
:100EC800A50701300310A90CA80CA70CA60CFF3E1F
:100ED800031D662FFE302905031D732F742F612F04
:100EE800902F0130A0002008A5070130A607003088
:100EF80003180130A707003003180130A807003095
:100F080003180130A90701300310A90CA80CA70C7D
:100F1800A60CFF3E031D882FFF302905031D952FC2
:100F2800962F752FA22F0130A5020130A0000310C3
:100F3800A60DA70DA80DA90DA00B9B2FA81BA52FCB
:100F4800A62FAC2F023025020318AB2FAC2F972FFA
:100F58002518AF2FB02FB82FFF30A605FF30A705F3
:100F68007F30A805FF30A9050310A50C2508A000AF
:100F7800A101A201A30118300310A00DA10DA20D1B
:100F8800A30DFF3E031DC02F2008A6042108A704B7
:100F98002208A8042308A90424080319D42FD52F4C
:100FA800DA2FF61FD82FD92FDA2FA9172908F6001C
:100FB8002808F5002708F4002608F30008000A129C
:100FC8008A15D3260A128A117A080A128A11052666
:0C0FD8000A128A11E82F0A128A110C2854
:101CFA0083120313A400A001A1017308F500F601E1
:101D0A007508A2007608A300241C8C2E8D2E932E13
:101D1A002208A0070318A10A2308A107013003100B
:101D2A00A20DA30DFF3E031D942E0310A40C24083C
:101D3A00031DA02EA12E892E2108F4002008F300ED
:101D4A000800831203130C1FAB2EAC2EB12E1E08F3
:101D5A00F0007008FA000C130B1DB42EB52ECA2E13
:101D6A000130F0007008F807C8307802031CBE2E54
:101D7A00BF2EC12E8715F80179087802031CC62EDA
:101D8A00C72EC82E87119C3081000B118C10720847
:101D9A008A00710E8300FE0E7E0E09000F30831634
:101DAA000317880089010F30831603138500870102
:101DBA0088018312031385018701831603138101A6
:101DCA009C308312031381008B170B178B160B1190
:101DDA00831603130F140F178F160F128312031390
:101DEA008C1026309200C3309F051F08C33908386B
:101DFA009F002130F300F30B002F831603130C17F7
:101E0A00831203130C131F141F083F3940389F0015
:101E1A00831603139F131F129F12FA3092000C307D
:101E2A008312031397000F309D00080083120313D7
:101E3A00A101F41F212F222F292FF309F409F30AF4
:101E4A000319F40AA101A10AF61F2C2F2D2F362FF0
:101E5A00F509F609F50A0319F60A0130F7007708B9
:101E6A00A106A201A3017308740403193D2F3E2F92
:101E7A00752FA001A00A4C2F01300310F30DF40DA9
:101E8A00FF3E031D422F0130F7007708A007F41F19
:101E9A004F2F502F412F01300310A20DA30DFF3EEB
:101EAA00031D512F74087602031D5D2F73087502F6
:101EBA00031C602F612F682F7308F5027408031C36
:101ECA00F603F602221401300310F40CF30CFF3E61
:101EDA00031D692F0130A002031D742F752F502F87
:101EEA0021080319792F7A2F7F2FA209A309A20AA1
:101EFA000319A30A2308F4002208F30008000310B8
:101F0A00831203135A0D5B0DDC005C08E2006208C1
:101F1A00031D902F912F9A2F0030DB000030DA003A
:101F2A000030D9000030D800FF2F5808DC005908CB
:101F3A00DD005A08DE005B08DF001F300310DF0CEB
:101F4A00DE0CDD0CDC0CFF3E031DA32F5C08E00059
:101F5A006008E100DA17FF30D805FF30D905FF30F5
:101F6A00DA050030DB059630E202E21FBD2FBE2FF4
:101F7A00D82F6208803A973E0318C42FC52FC62F60
:101F8A00912F01300310DB0CDA0CD90CD80CFF3E70
:101F9A00031DC72F0130DC005C08E207031DD62FA2
:101FAA00D72FC62FEF2F20306202031CDD2FDE2F22
:101FBA00EA2F912F0130DC000310D80DD90DDA0D6C
:101FCA00DB0DDC0BE12F0130E2026208031DEE2F6C
:101FDA00EF2FDF2F61080319F32FF42FFF2FD809F2
:101FEA00D909DA09DB09D80A0319D90A0319DA0A5D
:061FFA000319DB0A0800D8
:04400E00D420FF3F7C
:00000001FF
