:060000000A128A1100291A
:1002000003178316880189010313831605148514C7
:1002100005158515051686018701880103138312CC
:10022000850186018701880105182721051C2921E0
:1002300085183021851C322105193A21051D3C21E4
:1002400085194321851D4521051A4D2114292014A6
:100250000800201C0800860A061A8601A001080072
:10026000A0140800A01C080086030F30061A8600A0
:10027000A001080020150800201D0800870A071AA1
:100280008701A0010800A0150800A01D0800870331
:100290000F30071A8700A0010800051A4D2906082B
:0602A000070788000800BA
:04400E00D120FF3F7F
:00000001FF
