:060000000A128A11132907
:100008008B13A200030EA3000B1811200B19172045
:10001800230E8300A20E220E0900061C2014861C43
:0C002800A0140B10080020150B1108009C
:100200008A010A1482073F3406345B344F34663463
:100210006D347D3407347F34673477347C3439343B
:100220005E3479347134031783168801890103130E
:100230008316061486148501870188018113033013
:1002400096009500031383128501860187018801BA
:10025000031383128B158B128B170B11031383124D
:10026000640003138316D0300105043881000313A2
:1002700083160F144C2120185921A0186121201930
:1002800042213B294C21A10A0B117D302102031D83
:100290000800A101522108000313831206308108CF
:1002A0000B110800A403031124080F390021880052
:1002B0000800850A051A8501050800218700A001AC
:1002C000080085030F30851B850005080021870085
:0402D000A001080081
:04400E00D420FF3F7C
:00000001FF
