:060000000A128A11142906
:100008008B13A000030EA1000B1811200B19172049
:10001800210E8300A00E200E0900061C2214861C47
:10002800A2140B1008002215652187012318262821
:1000380025182E28A518342825193A2829088800B3
:10004800071629282A08880087150130A30685087D
:100058002514080025102B0888000714A51408008B
:10006800A5102C0888008714251508002D0888007D
:060078000715A5010800B8
:100200008A010A140F3982073F3406345B344F34B5
:1002100066346D347D3407347F34673477347C340E
:1002200039345E3479347134372147214C215321DC
:100230005C21031383160F146521A001A101A20103
:10024000A301A401A701A901A501AB01A601AE016B
:100250000313831222186B21A21872218A21261CF3
:10026000A521A61C9A21261D912179212A2903174F
:1002700083168801890103138316061486148501E9
:1002800007108710071187110712880108008113D2
:100290000330960095000800031383128501860140
:1002A000870188010800031383120B158B158B1629
:1002B0008B17031383120800811164000313831644
:1002C000D030010504388100080003138312063082
:1002D00081080B110800AE01AB01A401A601850A3B
:1002E000A2010800AE01AB01A401A6018503A20191
:1002F0000800221127080021A90028080021AA00CF
:100300002E080021AB002F080021AC00300800218E
:10031000AD00080005080F39A700050E0F39A80029
:1003200008000130A4020318B00A031C2615031CA0
:10033000A40708000A30A4020318AF0A031CA6147D
:10034000031C2611031CA4070800A6142615050883
:10035000A61DA400A6156430A4020318AE0A031C4F
:0C0360002614031CA610031CA4070800B0
:04400E00D430FF3F6C
:00000001FF
