:060000000A128A117529A5
:100008008B13A000030EA1000B199C21F8210B19DA
:0C001800A721210E8300A00E200E09007D
:100200008A010A1482073F3406345B344F34663463
:100210006D347D3407347F346734031783168801C7
:100220008901031383160614861406158611061217
:10023000861206138613850187018801890108004B
:10024000811307309600950008000313831285017F
:100250008601870188018901A001A101A201A501F0
:10026000A901B701B8012414A410BF01A601A3017C
:100270000A30A800AA00AC00AE0103138312861551
:10028000061286120C308500013089000800031325
:1002900083120B100B118B158B160B178B17031377
:1002A00083168C140313831212158C10031108008B
:1002B0008111640003138316D030010504388100D6
:1002C000080003138312833081080B110800031305
:1002D0008312493092007021031383128C1008009E
:1002E00003138316323092000800031383160F1491
:1002F0000D212021472125215821612167217021CD
:100300003A2246224F225B226422702279228522E1
:10031000DF21802926100510851408008510051599
:10032000A61085110516080005128516A6100910DD
:1003300089140800891009156121A50AFA302502DF
:10034000031D0800A501A803AA03AC03080061214E
:10035000B00AFA30B002031D08003408B1003508B5
:10036000B2003608B3009A21080027180630A80604
:10037000031926140330A80603188A210030A806A2
:1003800003198E210800A7180630AA060319A6141F
:100390000330AA06031990210030AA0603199421FC
:1003A000080027190630AC06031926150330AC06E1
:1003B000031996210030AC0603199A210800380869
:1003C0000021BF0037080021C0003A080021C10009
:1003D00039080021C2003C080021C3003B0800216D
:1003E000C4003E080021C5003D080021C6000800E9
:1003F000612188012418102AA4180A2A24191C2A09
:10040000A419162A241A282AA41A222A241B342AB8
:10041000A41B2E2A3F08870008150430A4000800FA
:100420004008870088150230A400080041088700B2
:1004300008161030A400080042088700881608300B
:10044000A40008004308870008174030A4000800F3
:100450004408870088172030A4000800450887005A
:1004600008140130A4000800460887008814803072
:10047000A4000800A9012808A900B8010A30A902AF
:100480000318B80A03183F2AA9070800B70101306A
:10049000A9020318B70A0318482AA9070800AB01E4
:1004A0002A08AB00BA010A30AB020318BA0A0318D3
:1004B000542AAB070800B9010130AB020318B90A8E
:1004C00003185D2AAB070800AD012C08AD00BC0184
:1004D0000A30AD020318BC0A0318692AAD070800E8
:1004E000BB010130AD020318BB0A0318722AAD0725
:1004F0000800AF012E08AF00BE010A30AF0203189A
:10050000BE0A03187E2AAF070800BD010130AF0202
:0C0510000318BD0A0318872AAF07080073
:04400E00D420FF3F7C
:00000001FF
