:060000000A128A115D29BD
:100008008B13A000030EA1000B1970219521210E5E
:080018008300A00E200E090078
:100200008A010A1482073F3406345B344F34663463
:100210006D347D3407347F346734031783168801C7
:100220008901031383160614861406158611061217
:10023000861206138613850187018801890108004B
:10024000811307309600950008000313831285017F
:100250008601870188018901A001A101A201A501F0
:10026000A801AF01B0012414A410B7010A30A700FF
:10027000A900AB00AD000313831286150612861287
:1002800024308500013009300800031383120B105D
:100290000B118B158B160B178B170800811164003F
:1002A00003138316D03001050438810008000313BE
:1002B0008312833081080B110800031383160F1477
:1002C0000D212021452125214E215721D721E32130
:1002D000EC21F82101220D22162222227C216629FE
:1002E0005721A50A7D302502031D0800A501A7039B
:1002F000A903AB03AD03080030080021B7002F08A5
:100300000021B80032080021B90031080021BA00EC
:1003100034080021BB0033080021BC00360800214E
:10032000BD0035080021BE000800572188012418AF
:10033000AD29A418A7292419B929A419B329241A65
:10034000C529A41ABF29241BD129A41BCB293708EE
:10035000870008150430A4000800380887008815B5
:100360000230A40008003908870008161030A400E5
:1003700008003A08870088160830A40008003B08E7
:10038000870008174030A40008003C088700881741
:100390002030A40008003D08870008140130A400A4
:1003A00008003E08870088148030A4000800A801D7
:1003B0002708A800B0010A30A8020318B00A0318E1
:1003C000DC29A8070800AF010130A8020318AF0A12
:1003D0000318E529A8070800AA012908AA00B20104
:1003E0000A30AA020318B20A0318F129AA07080062
:1003F000B1010130AA020318B10A0318FA29AA07A9
:100400000800AC012B08AC00B4010A30AC020318A0
:10041000B40A0318062AAC070800B3010130AC0285
:100420000318B30A03180F2AAC070800AE012D0801
:10043000AE00B6010A30AE020318B60A03181B2A32
:10044000AE070800B5010130AE020318B50A031863
:06045000242AAE0708009B
:04400E00D420FF3F7C
:00000001FF
