:020000040000FA
:060000000A128A110C280F
:10000800FE00030EF1000A08F2000A128A11B52F49
:100018000A128A110F28F801F901FA018312031351
:10002800E801E90183010A128A11EC2F83120313F4
:100038002D088039B2003208B7002D08B200320707
:10004800B3003308BD00AC1F2A282B282C283D14E8
:100058003D0803193028312840283D0A031D35285A
:1000680036283E280030AD000030AC000030AB0030
:100078000030AA00AC1748280030AD000030AC00B2
:100088000030AB000030AA0031088039B2003208D5
:10009800B7063108B2003207B3003308B800B01F02
:1000A8005628572858283814380803195C285D281A
:1000B8006C28380A031D612862286A280030B100BC
:1000C8000030B0000030AF000030AE00B017742828
:1000D8000030B1000030B0000030AF000030AE009A
:1000E80038080319782879287E283D08031D7D28BB
:1000F8007E2887280030AD000030AC000030AB000F
:100108000030AA007A2B2A08B2003208F30030081F
:100118000A128A153D260A128A11740883120313DB
:10012800C3007308C2004208B200B301B401B501AC
:100138003508BC003408BB003308BA003208B900DF
:100148004308B200B301B401B5013508C100340851
:10015800C0003308BF003208BE002B08B2003208C6
:10016800F3002F080A128A153D260A128A1174080C
:1001780083120313C3007308C2004208B200B3011C
:10018800B401B5013208B907330803110318013E59
:100198000319CF28BA07340803110318013E0319BD
:1001A800D628BB07350803110318013E0319DD28BB
:1001B800BC074308B200B301B401B5013208BE0759
:1001C800330803110318013E0319EB28BF0734084D
:1001D80003110318013E0319F228C007350803115B
:1001E8000318013E0319F928C1072C08B200320888
:1001F800F3002E080A128A153D260A128A1174087D
:1002080083120313C3007308C2004208B200B3018B
:10021800B401B5013208B907330803110318013EC8
:1002280003191729BA07340803110318013E0319E3
:100238001E29BB07350803110318013E0319252998
:10024800BC074308B200B301B401B5013208BE07C8
:10025800330803110318013E03193329BF07340873
:1002680003110318013E03193A29C0073508031181
:100278000318013E03194129C1070830B2000310D1
:10028800B90DBA0DBB0DBC0DB20B43292B08B2003A
:100298003208F3002E080A128A153D260A128A111E
:1002A800740883120313C3007308C2004208B20023
:1002B8004308B300B401B5013208B9073308031184
:1002C8000318013E03196929BA07340803110318F2
:1002D800013E03197029BB07350803110318013EB5
:1002E80003197729BC072A08B2003208F3002F083F
:1002F8000A128A153D260A128A11740883120313FA
:10030800C3007308C2004208B2004308B300B40136
:10031800B5013208B907330803110318013E031960
:100328009629BA07340803110318013E03199D29B9
:10033800BB07350803110318013E0319A429BC079C
:100348000830B2000310B90DBA0DBB0DBC0DB20BCD
:10035800A6292A08B2003208F3002E080A128A15C4
:100368003D260A128A11740883120313C300730806
:10037800C2004208B2004308B300B401B501320814
:10038800B907330803110318013E0319CC29BA072A
:10039800340803110318013E0319D329BB07350894
:1003A80003110318013E0319DA29BC072B08B20010
:1003B8003208F30030080A128A153D260A128A11FB
:1003C800740883120313C3007308C2004208B20002
:1003D8004308B300B401B5013208BE07330803115E
:1003E8000318013E0319F929BF073408031103183C
:1003F800013E0319002AC007350803110318013EFE
:100408000319072AC1072C08B2003208F3002F0885
:100418000A128A153D260A128A11740883120313D8
:10042800C3007308C2004208B2004308B300B40115
:10043800B5013208BE07330803110318013E03193A
:10044800262ABF07340803110318013E03192D2A71
:10045800C007350803110318013E0319342AC107E0
:100468002C08B2003208F30030080A128A153D261B
:100478000A128A11740883120313C3007308C20096
:100488004208B2004308B300B401B50108300310B4
:10049800B20DB30DB40DB50DFF3E031D4B2A320846
:1004A800BE07330803110318013E03195C2ABF076E
:1004B800340803110318013E0319632AC0073508DD
:1004C80003110318013E03196A2AC1073908B2004B
:1004D8003A08B3003B08B4003C08B50018300310D4
:1004E800B50CB40CB30CB20CFF3E031D732A3208D2
:1004F800BE07330803110318013E0319842ABF07F6
:10050800340803110318013E03198B2AC007350864
:1005180003110318013E0319922AC1070830B200DB
:100528000310B90DBA0DBB0DBC0DB20B942A3D08D2
:100538003807B200B301B30D3208823EC200330857
:100548000318013EFF3EC300C62A0130B200031063
:10055800BE0DBF0DC00DC10DB20BAB2ABC1FB52A15
:10056800B62AB72A3E140130B2000310B90DBA0DED
:10057800BB0DBC0DB20BB92AFF30C2070318C30A62
:10058800FF30C307C01FC92ACA2AA92AB801BC1F3D
:10059800CE2ACF2AEB2AFF303905B200FF303A05C0
:1005A800B300FF303B05B4007F303C05B50035088B
:1005B8003404330432040319E22AE32AE62AB80190
:1005C800B80AEB2A3E1CE92AEA2AEB2AE32A380869
:1005D8000319EF2AF02A212B0130BE070030031837
:1005E8000130BF07003003180130C007003003187E
:1005F8000130C107411C012B022B212B3E08B20000
:100608003F08B3004008B4004108B5000130B60007
:10061800350DB50CB40CB30CB20CB60B0C2B35085D
:10062800C1003408C0003308BF003208BE000130E2
:10063800C2070318C30A0030C3074308803AFF0003
:1006480080307F02031D2A2BFF304202031C2D2B12
:100658002E2B392B7F3083120313C1008030C0004A
:100668000030BF000030BE006E2B83120313430816
:10067800803AFF0080307F02031D442B0130420284
:100688000318472B482B542B003083120313C10047
:100698000030C0000030BF000030BE00B7016E2B34
:1006A800831203134208B2003208BD00FF30BE05B2
:1006B800FF30BF057F30C0050030C1053D1C652BEC
:1006C800662B672BC0173D08B2000310320CB3002D
:1006D8003308C1003708B2003208C1044108AD0030
:1006E8004008AC003F08AB003E08AA00080083128F
:1006F800031347088039CC004C08D4004708CC00C5
:100708004C07CD004D08D600C61F8B2B8C2B8D2B8C
:10071800561456080319912B922BA22B560A031D27
:10072800962B972B9F2B0030C7000030C600003057
:10073800C5000030C400C617C701AA2B0030C70087
:100748000030C6000030C5000030C4004B088039B6
:10075800CC004C08D500550854060319B42BB52B0A
:10076800B62B54174B08CC004C07CD004D08D500CC
:10077800CA1FBF2BC02BC12B551455080319C52BF5
:10078800C62BD62B550A031DCA2BCB2BD32B0030D7
:10079800CB000030CA000030C9000030C800CA17BA
:1007A800CB01DE2B0030CB000030CA000030C9007E
:1007B8000030C800560855020318E32BE42B282CF8
:1007C800541FE72BE82BEC2B8030CC004C08D406C8
:1007D8005608CC004C08D7005508CC004C08D60069
:1007E8005708CC004C08D5004408CC004C08D7006A
:1007F8004808CC004C08C4005708CC004C08C80076
:100808004508CC004C08D7004908CC004C08C50066
:100818005708CC004C08C9004608CC004C08D70043
:100828004A08CC004C08C6005708CC004C08CA003F
:100838004708CC004C08D7004B08CC004C08C70030
:100848005708CC004C08CB00D7015508CC00CD0187
:100858004D08CF0056084C02CE00031CCF034F08AA
:10086800803AFF0080307F02031D3C2C1A304E0274
:10087800031C3F2C402C7D2C83120313470846048D
:1008880045044404031D492C4B2C01304C2C0030EA
:10089800CC004C08D7000030C7000030C60000303C
:1008A800C5000030C4005508CC004C08D600852C83
:1008B800571C5F2C602C692C5708CC0003104C0C7B
:1008C8000138CD004D08D7006B2C0310D70C441C01
:1008D8006E2C6F2C702CD7170130CC00470DC70C2D
:1008E800C60CC50CC40CCC0B722C0130CC004C08C7
:1008F800D6078312031355085602031C842C852C33
:100908005C2C541B882C892CD42C5608031D8D2C48
:100918008E2C972C0030C7000030C6000030C50070
:100928000030C400022E4808C40749080311031800
:10093800013E0319A02CC5074A0803110318013EFC
:100948000319A72CC6074B0803110318013E031906
:10095800AE2CC707471CB12CB22C882D571CB52CC0
:10096800B62CBF2C5708CC0003104C0C0138CD0016
:100978004D08D700C12C0310D70C441CC42CC52C1F
:10098800C62CD7170130CC00470DC70CC60CC50CB8
:10099800C40CCC0BC82C0130CC004C08D607882DD1
:1009A8004708803AFF004B08803A7F02031DE62C77
:1009B8004A084602031DE62C49084502031DE62C99
:1009C800480844020318E92CEA2C422DFF30CC00D9
:1009D800FF30CD00FF30CE00FF30CF004808D000F8
:1009E8004908D1004A08D2004B08D3004408D00275
:1009F8004508031C450F012D022DD1024608031C92
:100A0800460F072D082DD2024708031C470F0D2D4E
:100A18000E2DD3025008CC0751080318510F152D7D
:100A2800162DCD0752080318520F1B2D1C2DCE076B
:100A380053080318530ACF074F08C7004E08C600CB
:100A48004D08C5004C08C4008030CC004C08D406C2
:100A5800D709D70A5708031D322D332D502D0130E1
:100A6800C407003003180130C507003003180130EF
:100A7800C607003003180130C707502D4808C402C4
:100A88004908031C490FC5024A08031C4A0FC6023D
:100A98004B08031C4B0FC70247084604450444048F
:100AA800031D572D582D842D5708031D5C2D5D2DD2
:100AB800842D0030C7000030C6000030C50000306B
:100AC800C400022E0130CC000310C40DC50DC60DA4
:100AD800C70DCC0B682DD71F722D732D742D4414A0
:100AE800571C772D782D7B2D0314D70D7D2D0310E2
:100AF800D70D56080319812D822D842D0130D60279
:100B0800C61F872D882D662DD501D71F8C2D8D2DBD
:100B18009B2D57087F390319922D932D962DD501BA
:100B2800D50A9B2D441C992D9A2D9B2D932D550844
:100B380003199F2DA02DD42D0130C40700300318B0
:100B48000130C507003003180130C607003003180C
:100B58000130C707471CB12DB22DD42D4408CC0055
:100B68004508CD004608CE004708CF000130D00028
:100B78004F0DCF0CCE0CCD0CCC0CD00BBC2D4F0890
:100B8800C7004E08C6004D08C5004C08C400560AE8
:100B98000319CF2DD02DD42D0130CC004C08D60709
:100BA800560A0319D82DD92DDE2D5608031DDD2D23
:100BB800DE2DEC2D0030C7000030C6000030C50027
:100BC8000030C4005608031DEA2DEB2DEC2DD4018E
:100BD800561CEF2DF02DF22DC617F62D7F30CC00C8
:100BE8004C08C6055608CC0003104C0CCD004D0827
:100BF800C700D41F002E012E022EC7170800F700C9
:100C0800831203139F18092E0A2EB42F9B2F7708DF
:100C1800E300E401E501E6016608F6006508F50071
:100C28006408F4006308F30001300A128A154427A7
:100C38000A128A11760883120313B1007508B000EE
:100C48007408AF007308AE003E30AD007C30AC00D5
:100C5800ED30AB009130AA000A128A111A200A124C
:100C68008A11831203132D08CB002C08CA002B0805
:100C7800C9002A08C8004230C7007830C6000030D2
:100C8800C5000030C4000A128A117B230A128A1197
:100C9800831203134708DB004608DA004508D90029
:100CA8004408D8000A128A15C8260A128A11831223
:100CB8000313580895001F08C33908389F002030CF
:100CC80083120313E300E30B672E00008312031360
:100CD8009F14B42F7708E300E401E501E6016608F4
:100CE800F6006508F5006408F4006308F3000130B5
:100CF8000A128A1544270A128A11760883120313E6
:100D0800B1007508B0007408AF007308AE003E303B
:100D1800AD007C30AC00ED30AB009130AA000A1277
:100D28008A111A200A128A11831203132D08CB0084
:100D38002C08CA002B08C9002A08C8004230C7007E
:100D48007830C6000030C5000030C4000A128A118D
:100D58007B230A128A11831203134708DB00460813
:100D6800DA004508D9004408D8000A128A15C826AE
:100D78000A128A118312031358089B001F08C339EB
:100D88000C389F00203083120313E300E30BCA2EB4
:100D98000000831203139F14B42F7708E300E401C3
:100DA800E501E6016608F6006508F5006408F40048
:100DB8006308F30001300A128A1544270A128A11BF
:100DC800760883120313B1007508B0007408AF00E9
:100DD8007308AE003D30AD004830AC00B430AB0015
:100DE8003930AA000A128A111A200A128A118312AB
:100DF80003132D08CB002C08CA002B08C9002A08A9
:100E0800C8004030C700E030C6000030C5000030E0
:100E1800C4000A128A117B230A128A11831203134F
:100E28004708DB004608DA004508D9004408D8001E
:100E38000A128A15C8260A128A118312031358083F
:100E4800E7006708E9001F08C33904389F005230DB
:100E580083120313E300E30B2F2F00008312031305
:100E68009F14B42F7708E300E401E501E601660862
:100E7800F6006508F5006408F4006308F300013023
:100E88000A128A1544270A128A1176088312031354
:100E9800B1007508B0007408AF007308AE003D30AB
:100EA800AD004830AC00B430AB003930AA000A12AB
:100EB8008A111A200A128A11831203132D08CB00F3
:100EC8002C08CA002B08C9002A08C8004030C700EF
:100ED800E030C6000030C5000030C4000A128A1194
:100EE8007B230A128A11831203134708DB00460882
:100EF800DA004508D9004408D8000A128A15C8261D
:100F08000A128A11831203135808E7006708F800C9
:100F180078088800C3309F05523083120313E3001A
:100F2800E30B942F0000831203139F14B42F1F0C9C
:100F3800E300630C0F39E400E5016508003A031982
:100F4800A62FB42F6408003A03190B2E013A03198F
:100F5800362F033A03196E2E013A0319D12EB42FF6
:100F68000800831203130C1FBA2FBB2FC02F1E08B3
:100F7800F0007008FA000C130B1DC32FC42FE42FC8
:100F88000130F0007008F90779086902031CCD2FB9
:100F9800CE2FD02F8715D12F871179087802031CFF
:100FA800D62FD72FD92F0716DA2F0712FA30790242
:100FB800031CDF2FE02FE12FF901B03081000B1166
:100FC8008C1072088A00710E8300FE0E7E0E0900D6
:100FD8000A128A1566260A128A117A080A128A11D2
:0E0FE80003260A128A11F12F0A128A110C2810
:101C7A0083120313A400A001A1017308F500F60161
:101C8A007508A2007608A300241C4C2E4D2E532E54
:101C9A002208A0070318A10A2308A107013003108C
:101CAA00A20DA30DFF3E031D542E0310A40C2408FD
:101CBA00031D602E612E492E2108F4002008F3002E
:101CCA0008001F3083160317880089011F30831606
:101CDA0003138500870188010713871783120313EB
:101CEA00850187018830831603138100B03083127F
:101CFA00031381008B170B178B160B118316031313
:101D0A000F140F178F160F12831203138C1026301D
:101D1A009200C3309F051F08C33908389F0021303D
:101D2A00F300F30B962E831603130C178312031377
:101D3A000C131F141F083F3940389F0083160313E2
:101D4A009F131F129F12FA3092000C308312031352
:101D5A0097000F309D008C12831603138C120C12FD
:101D6A001813981618121815831203131813181635
:101D7A0098178316031787111930831603139900CE
:101D8A0001309A0008000310831203135A0D5B0DE9
:101D9A00DC005C08E2006208031DD42ED52EDE2E7C
:101DAA000030DB000030DA000030D9000030D80003
:101DBA00432F5808DC005908DD005A08DE005B088A
:101DCA00DF001F300310DF0CDE0CDD0CDC0CFF3EE5
:101DDA00031DE72E5C08E0006008E100DA17FF3017
:101DEA00D805FF30D905FF30DA050030DB0596301B
:101DFA00E202E21F012F022F1C2F6208803A973E4F
:101E0A000318082F092F0A2FD52E01300310DB0CD7
:101E1A00DA0CD90CD80CFF3E031D0B2F0130DC0065
:101E2A005C08E207031D1A2F1B2F0A2F332F2030BD
:101E3A006202031C212F222F2E2FD52E0130DC0007
:101E4A000310D80DD90DDA0DDB0DDC0B252F01306F
:101E5A00E2026208031D322F332F232F6108031970
:101E6A00372F382F432FD809D909DA09DB09D80ABD
:101E7A000319D90A0319DA0A0319DB0A08008312BB
:101E8A000313A400240803194B2F4C2F602FF61FAD
:101E9A004F2F502F602F7309A6007409A7007509E8
:101EAA00A8007609A900A60A0319A70A0319A80A0D
:101EBA000319A90A682F7608A9007508A8007408EA
:101ECA00A7007308A6007608750474047304031D3A
:101EDA006F2F702F792F0030F6000030F500003098
:101EEA00F4000030F300FF2F9630A0002008A50070
:101EFA008B2F0130A0002008A50701300310A90C80
:101F0A00A80CA70CA60CFF3E031D832FFE30290543
:101F1A00031D902F912F7E2FAD2F0130A000200896
:101F2A00A5070130A607003003180130A7070030C3
:101F3A0003180130A807003003180130A90701303F
:101F4A000310A90CA80CA70CA60CFF3E031DA52F75
:101F5A00FF302905031DB22FB32F922FBF2F013057
:101F6A00A5020130A0000310A60DA70DA80DA90D0A
:101F7A00A00BB82FA81BC22FC32FC92F02302502CE
:101F8A000318C82FC92FB42F2518CC2FCD2FD52F22
:101F9A00FF30A605FF30A7057F30A805FF30A90549
:101FAA000310A50C2508A000A101A201A301183065
:101FBA000310A00DA10DA20DA30DFF3E031DDD2FE1
:101FCA002008A6042108A7042208A8042308A904B3
:101FDA0024080319F12FF22FF72FF61FF52FF62FEA
:101FEA00F72FA9172908F6002808F5002708F40092
:061FFA002608F3000800B8
:04400E00D420FF3F7C
:00000001FF
