:020000040000FA
:060000000A128A110E280D
:10000800FE00030EF6000408F7000A08F8000A12BA
:100018008A113B2E0A128A1111288317CC30FD0051
:100028000B30FE00D730FF00903084000A128A118E
:10003800EF270A128A116530FD000C30FE001330DC
:10004800FF00103084000A128A11EF270A128A1161
:100058008313C430FD000B30FE001A30FF00A030BF
:1000680084000A128A11EF270A128A1183160313D1
:10007800C401C501C601C701C801C901CA01CB0134
:10008800CC0183120313EE01EF01F901FA01FB0120
:10009800FC01FD0183010A128A15C82A8312031381
:1000A80031088039B6003608BB003108B60036077B
:1000B800B7003708C100B01F6228632864284114BC
:1000C80041080319682869287828410A031D6D2802
:1000D8006E2876280030B1000030B0000030AF0044
:1000E8000030AE00B01780280030B1000030B000FA
:1000F8000030AF000030AE0035088039B600360851
:10010800BB063508B6003607B7003708C000B41F6D
:100118008E288F2890284014400803199428952881
:10012800A428400A031D99289A28A2280030B5005F
:100138000030B4000030B3000030B200B417AC286F
:100148000030B5000030B4000030B3000030B20019
:1001580040080319B028B128B6284108031DB5285E
:10016800B628BF280030B1000030B0000030AF0022
:100178000030AE00B22B2E08B6003608A0003408B6
:100188000A128A153E230A128A11831203132108C0
:10019800C7002008C6004608B600B701B801B90173
:1001A8003908BF003808BE003708BD003608BC0053
:1001B8004708B600B701B801B9013908C5003808C1
:1001C800C4003708C3003608C2002F08B600360836
:1001D800A00033080A128A153E230A128A118312D4
:1001E80003132108C7002008C6004608B600B70157
:1001F800B801B9013608BC07370803110318013ED6
:1002080003190729BD07380803110318013E03190C
:100218000E29BE07390803110318013E03191529D1
:10022800BF074708B600B701B801B9013608C207C9
:10023800370803110318013E03192329C307380897
:1002480003110318013E03192A29C40739080311A9
:100258000318013E03193129C5073008B6003608CE
:10026800A00032080A128A153E230A128A11831244
:1002780003132108C7002008C6004608B600B701C6
:10028800B801B9013608BC07370803110318013E45
:1002980003194F29BD07380803110318013E031934
:1002A8005629BE07390803110318013E03195D29B1
:1002B800BF074708B600B701B801B9013608C20739
:1002C800370803110318013E03196B29C3073808BF
:1002D80003110318013E03197229C40739080311D1
:1002E8000318013E03197929C5070830B600031021
:1002F800BC0DBD0DBE0DBF0DB60B7B292F08B6007A
:100308003608A00032080A128A153E230A128A11FA
:10031800831203132108C7002008C6004608B60048
:100328004708B700B801B9013608BC0737080311F8
:100338000318013E0319A129BD0738080311031842
:10034800013E0319A829BE07390803110318013E05
:100358000319AF29BF072E08B6003608A0003308D6
:100368000A128A153E230A128A11831203132108DE
:10037800C7002008C6004608B6004708B700B801FD
:10038800B9013608BC07370803110318013E0319E1
:10039800CE29BD07380803110318013E0319D529D2
:1003A800BE07390803110318013E0319DC29BF07EA
:1003B8000830B6000310BC0DBD0DBE0DBF0DB60B49
:1003C800DE292E08B6003608A00032080A128A155F
:1003D8003E230A128A11831203132108C70020083A
:1003E800C6004608B6004708B700B801B901360884
:1003F800BC07370803110318013E0319042ABD0777
:10040800380803110318013E03190B2ABE073908DF
:1004180003110318013E0319122ABF072F08B6005B
:100428003608A00034080A128A153E230A128A11D7
:10043800831203132108C7002008C6004608B60027
:100448004708B700B801B9013608C20737080311D1
:100458000318013E0319312AC3073808031103188A
:10046800013E0319382AC407390803110318013E4D
:1004780003193F2AC5073008B6003608A00033081C
:100488000A128A153E230A128A11831203132108BD
:10049800C7002008C6004608B6004708B700B801DC
:1004A800B9013608C207370803110318013E0319BA
:1004B8005E2AC307380803110318013E0319652A89
:1004C800C407390803110318013E03196C2AC5072C
:1004D8003008B6003608A00034080A128A153E23F0
:1004E8000A128A11831203132108C7002008C600C4
:1004F8004608B6004708B700B801B901083003102C
:10050800B60DB70DB80DB90DFF3E031D832A360889
:10051800C207370803110318013E0319942AC307B9
:10052800380803110318013E03199B2AC407390828
:1005380003110318013E0319A22AC5073C08B60097
:100548003D08B7003E08B8003F08B900183003104E
:10055800B90CB80CB70CB60CFF3E031DAB2A360815
:10056800C207370803110318013E0319BC2AC30741
:10057800380803110318013E0319C32AC4073908B0
:1005880003110318013E0319CA2AC5070830B6002B
:100598000310BC0DBD0DBE0DBF0DB60BCC2A410816
:1005A8004007B600B701B70D3608823EC6003708C7
:1005B8000318013EFF3EC700FE2A0130B6000310B3
:1005C800C20DC30DC40DC50DB60BE32ABF1FED2A1E
:1005D800EE2AEF2A42140130B6000310BC0DBD0DFF
:1005E800BE0DBF0DB60BF12AFF30C6070318C70AA8
:1005F800FF30C707C41F012B022BE12AC001BF1F10
:10060800062B072B232BFF303C05B600FF303D059A
:10061800B700FF303E05B8007F303F05B900390804
:1006280038043704360403191A2B1B2B1E2BC00160
:10063800C00A232B421C212B222B232B1B2B4008C7
:100648000319272B282B592B0130C2070030031818
:100658000130C307003003180130C4070030031805
:100668000130C507451C392B3A2B592B4208B600D7
:100678004308B7004408B8004508B9000130BA007B
:10068800390DB90CB80CB70CB60CBA0B442B390899
:10069800C5003808C4003708C3003608C200013056
:1006A800C6070318C70A0030C7074708803AFF0083
:1006B80080307F02031D622BFF304602031C652B2E
:1006C800662B712B7F3083120313C5008030C40062
:1006D8000030C3000030C200A62B83120313470862
:1006E800803AFF0080307F02031D7C2B01304602D8
:1006F80003187F2B802B8C2B003083120313C5002B
:100708000030C4000030C3000030C200BB01A62B7B
:10071800831203134608B6003608C100FF30C2052D
:10072800FF30C3057F30C4050030C505411C9D2B33
:100738009E2B9F2BC4174108B6000310360CB70038
:100748003708C5003B08B6003608C5044508B1009F
:100758004408B0004308AF004208AE000800831206
:1007680003134B088039D0005008D8004B08D0003C
:100778005007D1005108DA00CA1FC32BC42BC52B60
:100788005A145A080319C92BCA2BDA2B5A0A031D03
:10079800CE2BCF2BD72B0030CB000030CA00003037
:1007A800C9000030C800CA17CB01E22B0030CB00CB
:1007B8000030CA000030C9000030C8004F08803936
:1007C800D0005008D900590858060319EC2BED2B16
:1007D800EE2B58174F08D0005007D1005108D90008
:1007E800CE1FF72BF82BF92B591459080319FD2B99
:1007F800FE2B0E2C590A031D022C032C0B2C003047
:10080800CF000030CE000030CD000030CC00CE1735
:10081800CF01162C0030CF000030CE000030CD00C4
:100828000030CC005A08590203181B2C1C2C602CD1
:10083800581F1F2C202C242C8030D0005008D8069C
:100848005A08D0005008DB005908D0005008DA00D8
:100858005B08D0005008D9004808D0005008DB00D9
:100868004C08D0005008C8005B08D0005008CC00E5
:100878004908D0005008DB004D08D0005008C900D6
:100888005B08D0005008CD004A08D0005008DB00B3
:100898004E08D0005008CA005B08D0005008CE00AF
:1008A8004B08D0005008DB004F08D0005008CB00A0
:1008B8005B08D0005008CF00DB015908D000D101F7
:1008C8005108D3005A085002D200031CD30353081E
:1008D800803AFF0080307F02031D742C1A305202C8
:1008E800031C772C782CB52C831203134B084A046D
:1008F80049044804031D812C832C0130842C0030CA
:10090800D0005008DB000030CB000030CA000030B7
:10091800C9000030C8005908D0005008DA00BD2CC2
:100928005B1C972C982CA12C5B08D0000310500C52
:100938000138D1005108DB00A32C0310DB0C481C44
:10094800A62CA72CA82CDB170130D0004B0DCB0C04
:10095800CA0CC90CC80CD00BAA2C0130D000500806
:10096800DA078312031359085A02031CBC2CBD2C46
:10097800942C581BC02CC12C0C2D5A08031DC52CB7
:10098800C62CCF2C0030CB000030CA000030C90084
:100998000030C8003A2E4C08C8074D080311031848
:1009A800013E0319D82CC9074E0803110318013E4C
:1009B8000319DF2CCA074F0803110318013E031956
:1009C800E62CCB074B1CE92CEA2CC02D5B1CED2C2C
:1009D800EE2CF72C5B08D0000310500C0138D10026
:1009E8005108DB00F92C0310DB0C481CFC2CFD2CF7
:1009F800FE2CDB170130D0004B0DCB0CCA0CC90CF8
:100A0800C80CD00B002D0130D0005008DA07C02DDB
:100A18004B08803AFF004F08803A7F02031D1E2DC5
:100A28004E084A02031D1E2D4D084902031D1E2DA6
:100A38004C0848020318212D222D7A2DFF30D000B2
:100A4800FF30D100FF30D200FF30D3004C08D40073
:100A58004D08D5004E08D6004F08D7004808D402E4
:100A68004908031C490F392D3A2DD5024A08031CA1
:100A78004A0F3F2D402DD6024B08031C4B0F452D26
:100A8800462DD7025408D00755080318550F4D2D89
:100A98004E2DD10756080318560F532D542DD20743
:100AA80057080318570AD3075308CB005208CA003F
:100AB8005108C9005008C8008030D0005008D80636
:100AC800DB09DB0A5B08031D6A2D6B2D882D0130BD
:100AD800C807003003180130C90700300318013077
:100AE800CA07003003180130CB07882D4C08C8020C
:100AF8004D08031C4D0FC9024E08031C4E0FCA02B5
:100B08004F08031C4F0FCB024B084A044904480402
:100B1800031D8F2D902DBC2D5B08031D942D952D45
:100B2800BC2D0030CB000030CA000030C9000030B6
:100B3800C8003A2E0130D0000310C80DC90DCA0DE7
:100B4800CB0DD00BA02DDB1FAA2DAB2DAC2D48143F
:100B58005B1CAF2DB02DB32D0314DB0DB52D031089
:100B6800DB0D5A080319B92DBA2DBC2D0130DA0254
:100B7800CA1FBF2DC02D9E2DD901DB1FC42DC52D29
:100B8800D32D5B087F390319CA2DCB2DCE2DD90162
:100B9800D90AD32D481CD12DD22DD32DCB2D5908B0
:100BA8000319D72DD82D0C2E0130C8070030031893
:100BB8000130C907003003180130CA070030031894
:100BC8000130CB074B1CE92DEA2D0C2E4808D0002C
:100BD8004908D1004A08D2004B08D3000130D4009C
:100BE800530DD30CD20CD10CD00CD40BF42D5308CC
:100BF800CB005208CA005108C9005008C8005A0A58
:100C08000319072E082E0C2E0130D0005008DA07E1
:100C18005A0A0319102E112E162E5A08031D152EC6
:100C2800162E242E0030CB000030CA000030C90038
:100C38000030C8005A08031D222E232E242ED80166
:100C48005A1C272E282E2A2ECA172E2E7F30D00067
:100C58005008CA055A08D0000310500CD10051089A
:100C6800CB00D81F382E392E3A2ECB170800831206
:100C780003130C1F402E412E752E5A2E1E08F3000A
:100C88007308FD00732E1E08F3007308FC00732E12
:100C98001E08F300730883160313CC00732E1E0876
:100CA800F300730883160313CB00732E1F0CF30095
:100CB800730C0F39F400F5017508003A0319652E15
:100CC800732E7408003A0319422E013A0319472E6D
:100CD800033A03194C2E013A0319532E732E83122B
:100CE8000C130B1C782E792E172F06187C2E7D2EB0
:100CF800B82E081488101030F3007308F00083161B
:100D0800031345080A128A15DB220A128A111130C8
:100D1800F3007308F0008316031344080A128A15B7
:100D2800DB220A128A111230F3007308F0007A08E5
:100D38000A128A15DB220A128A111330F30073088B
:100D4800F00079080A128A15DB220A128A11033088
:100D5800F5008A30F4005530F300F30BB12EF40B94
:100D6800B12EF50BB12EB82E831203138618BD2EA3
:100D7800BE2E162F1F100810881410300A128A155C
:100D8800B7220A128A11F300730883160313C900E5
:100D980011300A128A15B7220A128A11F300730851
:100DA80083160313C80012300A128A15B7220A12D2
:100DB8008A11F300730883160313C70013300A124D
:100DC8008A15B7220A128A11F300730883160313CF
:100DD800C6004908831203139500831603134808B5
:100DE800831203139B00831603134708F300730849
:100DF800FA004608F3007308F9000A128A15F82267
:100E08000A128A111030F5003930F4000D30F30061
:100E1800F30B0C2FF40B0C2FF50B0C2F132F831245
:100E280003131F140B100B1D1A2F1B2F252F0A122B
:100E38008A15F8220A128A11B0308312031381002E
:100E48000B118C1078088A0077088400760E8300CE
:100E5800FE0E7E0E090083120313A800280803194A
:100E6800362F372F4B2FA31F3A2F3B2F4B2F2009FD
:100E7800AA002109AB002209AC002309AD00AA0A87
:100E88000319AB0A0319AC0A0319AD0A532F230837
:100E9800AD002208AC002108AB002008AA002308F6
:100EA800220421042004031D5A2F5B2F642F0030D5
:100EB800A3000030A2000030A1000030A000EA2FFB
:100EC8009630A4002408A900762F0130A400240835
:100ED800A90701300310AD0CAC0CAB0CAA0CFF3EFB
:100EE800031D6E2FFE302D05031D7B2F7C2F692FD0
:100EF800982F0130A4002408A9070130AA07003060
:100F080003180130AB07003003180130AC0700307C
:100F180003180130AD0701300310AD0CAC0CAB0C5D
:100F2800AA0CFF3E031D902FFF302D05031D9D2F9A
:100F38009E2F7D2FAA2F0130A9020130A400031093
:100F4800AA0DAB0DAC0DAD0DA40BA32FAC1BAD2F93
:100F5800AE2FB42F023029020318B32FB42F9F2FBE
:100F68002918B72FB82FC02FFF30AA05FF30AB05BF
:100F78007F30AC05FF30AD050310A90C2908A4008B
:100F8800A501A601A70118300310A40DA50DA60DF3
:100F9800A70DFF3E031DC82F2408AA042508AB048B
:100FA8002608AC042708AD0428080319DC2FDD2F18
:100FB800E22FA31FE02FE12FE22FAD172D08A3008A
:100FC8002C08A2002B08A1002A08A00008007E080F
:100FD8008A007F0882000A128A11EB270A128A11F6
:100FE8008000840A04087D0603190034FF0A0319E7
:040FF800FE0AEF2FCF
:10156E00F1007108831203178D00831603178C1375
:10157E000C14831203170C08F0007008F2007208A6
:10158E0008000A128A15C7240A128A150A128A1529
:10159E0039260A128A150A128A159B230A128A15EF
:1015AE00CD2A0A128A110E28F10070088312031731
:1015BE008D0071088C00831603178C130C158B137A
:1015CE0055308D00AA308D008C14831203130D1E1E
:1015DE00F12AF22AEC2A0D12831603170C118B1323
:1015EE0008000130F0007008FB077B087A02031C2C
:1015FE00012B022B062B831203138715092B831243
:10160E00031387117B087902031C0E2B0F2B112B52
:10161E000716122B0712FA307B02031C172B182BFE
:10162E00192BFB01080020340D3449346E34673415
:10163E007234653473346534203475346E3420342A
:10164E006E3475346D34653472346F3420346534D1
:10165E006E3474347234653420343034203479343A
:10166E00203439340D340034003400340034831205
:10167E000313A800A401A5012008A200A3012208BB
:10168E00A6002308A700281C4D2B4E2B542B2608F2
:10169E00A4070318A50A2708A50701300310A60DF5
:1016AE00A70DFF3E031D552B0310A80C2808031D84
:1016BE00612B622B4A2B2508A1002408A0000800EC
:1016CE00033083120313A2008A30A1005530A0000C
:1016DE00A00B6F2BA10B6F2BA20B6F2B831203137F
:1016EE00EF010130A0002008EF076F08A03E840034
:1016FE00831300089900413083120313A100ED30CB
:10170E00A000A00B882BA10B882B8D2B25308312CC
:10171E0003136F02031C942B952B782B8C1E982B86
:10172E00992B952BEE010800033083160313D2007C
:10173E008A30D1005530D000D00BA32BD10BA32B68
:10174E00D20BA32B83120313EF0101308316031365
:10175E00D000500883120313EF076F08103E840069
:10176E00831700089900413083160313D100ED3022
:10177E00D000D00BC02BD10BC02BC52B60308312E9
:10178E0003136F02031CCC2BCD2BAC2B8C1ED02B3A
:10179E00D12BCD2B0A128A1568240A128A1508003D
:1017AE0020340D345134753465342034733465343B
:1017BE00723476346F346D346F3474346F347234F3
:1017CE0020346434653473346534613420346D34BC
:1017DE006F347634653472343F340D3431342934F9
:1017EE0020345034443420340D34323429342034EF
:1017FE005034493420340D343334293420344334B6
:10180E00443420340D3434342934203443344934B0
:10181E000D3400340034003420340D3443346F342E
:10182E006D346F342034643465347334653461340C
:10183E00203463346F346E34743472346F346C34D9
:10184E006134723420346C346F3473342034733416
:10185E006534723476346F346D346F3474346F345F
:10186E007234653473343F340D34313429342034BA
:10187E004D3461346E34753461346C346D3465348A
:10188E006E347434653420340D34323429342034BB
:10189E0043346F346E34203463346F346D347534A6
:1018AE006E34693463346134633469346F346E3446
:1018BE002034733465347234693461346C340D34CD
:1018CE000034831203131A0883160313CD004D0838
:1018DE0083120313EE00B42C83120313EE01C62CF5
:1018EE00033083160313CF008A30CE005530CD005F
:1018FE00CD0B7F2CCE0B7F2CCF0B7F2C83120313A3
:10190E00EF01013083160313CD004D08831203132C
:10191E00EF076F08903E840083170008990041304E
:10192E0083160313CE00ED30CD00CD0B9C2CCE0BC9
:10193E009C2CA12C3D30831203136F02031CA82C88
:10194E00A92C882C8C1EAC2CAD2CA92CEE010A12C5
:10195E008A15B2250A128A15C62C6E088316031331
:10196E00CD00CE014E08003A0319BE2CC62C4D08F0
:10197E00313A0319732C033A0319772CC62C08003D
:10198E001F3083160317880089011F308316031337
:10199E008500061486148030870088018312031395
:1019AE008501860187018801FF3083160313960097
:1019BE0081130330950008308100B0308312031379
:1019CE0081008B170B178B160B118B150B108316B3
:1019DE0003130F140F178F160F12831203138C108D
:1019EE0026309200C3309F051F08C33908389F0068
:1019FE00203083120313A000A00B032D00008316CA
:101A0E0003130C17831203130C131F141F083F39F3
:101A1E0040389F00831603139F131F129F12FA3034
:101A2E0092000C308312031397000F309D008C121E
:101A3E00831603138C120C121813981618121815FD
:101A4E00831203131813181698178316031787118A
:101A5E00193083160313990001309A000800031001
:101A6E00831203135E0D5F0DE0006008E60066084A
:101A7E00031D422D432D4C2D0030DF000030DE00C3
:101A8E000030DD000030DC00B12D5C08E0005D08A8
:101A9E00E1005E08E2005F08E3001F300310E30C74
:101AAE00E20CE10CE00CFF3E031D552D6008E40036
:101ABE006408E500DE17FF30DC05FF30DD05FF3082
:101ACE00DE050030DF059630E602E61F6F2D702D25
:101ADE008A2D6608803A973E0318762D772D782D3D
:101AEE00432D01300310DF0CDE0CDD0CDC0CFF3E51
:101AFE00031D792D0130E0006008E607031D882DD7
:101B0E00892D782DA12D20306602031C8F2D902D4E
:101B1E009C2D432D0130E0000310DC0DDD0DDE0D9C
:101B2E00DF0DE00B932D0130E6026608031DA02D9C
:101B3E00A12D912D65080319A52DA62DB12DDC091A
:101B4E00DD09DE09DF09DC0A0319DD0A0319DE0AE5
:101B5E000319DF0A0800831203131A08EC006C083D
:101B6E00EE00222E0A128A1567230A128A153030C9
:101B7E00831203131A02031CC52DC62D382E3A30BC
:101B8E001A020318CB2DCC2D382E1A08EC006C0837
:101B9E00FD000A128A1539260A128A15382E0A12E3
:101BAE008A1567230A128A153030831203131A021C
:101BBE00031CE22DE32D382E3A301A020318E82DBD
:101BCE00E92D382E1A08EC006C08FC00D02D0A12F4
:101BDE008A1567230A128A153030831203131A02EC
:101BEE00031CFA2DFB2D382E3A301A020318002E44
:101BFE00012E382E1A08EC006C0883160313CC0045
:101C0E00D02D0A128A1567230A128A1530308312D4
:101C1E0003131A02031C142E152E382E3A301A02F4
:101C2E0003181A2E1B2E382E1A08EC006C08831679
:101C3E000313CB00D02D6E08EC00ED016D08003AB9
:101C4E0003192A2E382E6C08313A0319B92D033A8E
:101C5E000319D62D013A0319EE2D073A0319082E52
:101C6E00382E0800831203139F183E2E3F2EFF2F8F
:101C7E00E62F7D08E700E801E901EA016A08A30002
:101C8E006908A2006808A1006708A00001300A12C6
:101C9E008A112F270A128A15831203132308B500FF
:101CAE002208B4002108B3002008B2003E30B10073
:101CBE007C30B000ED30AF009130AE000A128A11C8
:101CCE0052200A128A15831203133108CF003008EE
:101CDE00CE002F08CD002E08CC004230CB0078303D
:101CEE00CA000030C9000030C8000A128A11B3239E
:101CFE000A128A15831203134B08DF004A08DE000E
:101D0E004908DD004808DC000A128A1536250A1239
:101D1E008A15831203135C0895001508E7006708FF
:101D2E0083160313C500831203131F08C339043827
:101D3E009F00203083120313E700E70BA42E000050
:101D4E00831203139F14FF2F7C08E700E801E901BB
:101D5E00EA016A08A3006908A2006808A1006708E2
:101D6E00A00001300A128A112F270A128A15831237
:101D7E0003132308B5002208B4002108B30020087D
:101D8E00B2003D30B1004830B000B430AF00393051
:101D9E00AE000A128A1152200A128A1583120313F8
:101DAE003108CF003008CE002F08CD002E08CC0011
:101DBE004030CB00E030CA000030C9000030C8000F
:101DCE000A128A11B3230A128A15831203134B08BF
:101DDE00DF004A08DE004908DD004808DC000A1270
:101DEE008A1536250A128A15831203135C08EB0036
:101DFE006B08F9001F08C33908389F005230831250
:101E0E000313E700E70B092F0000831203139F143F
:101E1E00FF2F831603134C0883120313E700E80108
:101E2E00E901EA016A08A3006908A2006808A10096
:101E3E006708A00001300A128A112F270A128A158C
:101E4E00831203132308B5002208B4002108B3003F
:101E5E002008B2003E30B1007C30B000ED30AF0053
:101E6E009130AE000A128A1152200A128A1583127C
:101E7E0003133108CF003008CE002F08CD002E08F6
:101E8E00CC004230CB007830CA000030C9000030A0
:101E9E00C8000A128A11B3230A128A158312031379
:101EAE004B08DF004A08DE004908DD004808DC0068
:101EBE000A128A1536250A128A15831203135C0834
:101ECE009B001B08E700670883160313C4008312E8
:101EDE0003131F08C3390C389F00203083120313DD
:101EEE00E700E70B782F0000831203139F14FF2FD8
:101EFE00831603134B0883120313E700E801E9016D
:101F0E00EA016A08A3006908A2006808A100670830
:101F1E00A00001300A128A112F270A128A15831285
:101F2E0003132308B5002208B4002108B3002008CB
:101F3E00B2003D30B1004830B000B430AF0039309F
:101F4E00AE000A128A1152200A128A158312031346
:101F5E003108CF003008CE002F08CD002E08CC005F
:101F6E004030CB00E030CA000030C9000030C8005D
:101F7E000A128A11B3230A128A15831203134B080D
:101F8E00DF004A08DE004908DD004808DC000A12BE
:101F9E008A1536250A128A15831203135C08EB0084
:101FAE006B08FA00C3309F05523083120313E7000B
:101FBE00E70BDF2F0000831203139F14FF2F1F0C5C
:101FCE00E700670C0F39E800E9016908003A0319C8
:101FDE00F12FFF2F6808003A0319402E013A03191A
:101FEE00AB2E033A0319102F013A03197F2FFF2F3F
:021FFE000800D9
:04400E00D420FF3F7C
:00000001FF
