:020000040000FA
:060000000A128A110C280F
:10000800FE00030EF1000A08F2000A128A156C2D90
:100018000A128A110F280A128A11F8270A128A115D
:10002800EB000A128A11F9270A128A11EC00E3017F
:10003800E401E501E601E701E801E901EA01F80167
:10004800F901FA0183010A128A15452D8312031357
:100058002D088039B2003208B7002D08B2003207E7
:10006800B3003308BD00AC1F3A283B283C283D1498
:100078003D0803194028412850283D0A031D4528FA
:1000880046284E280030AD000030AC000030AB00F0
:100098000030AA00AC1758280030AD000030AC0082
:1000A8000030AB000030AA0031088039B2003208B5
:1000B800B7063108B2003207B3003308B800B01FE2
:1000C8006628672868283814380803196C286D28AA
:1000D8007C28380A031D712872287A280030B1005C
:1000E8000030B0000030AF000030AE00B0178428F8
:1000F8000030B1000030B0000030AF000030AE007A
:1001080038080319882889288E283D08031D8D285A
:100118008E2897280030AD000030AC000030AB00CE
:100128000030AA008A2B2A08B2003208F3003008EF
:100138000A128A11CF270A128A117408831203132C
:10014800C3007308C2004208B200B301B401B5018C
:100158003508BC003408BB003308BA003208B900BF
:100168004308B200B301B401B5013508C100340831
:10017800C0003308BF003208BE002B08B2003208A6
:10018800F3002F080A128A11CF270A128A1174085D
:1001980083120313C3007308C2004208B200B301FC
:1001A800B401B5013208B907330803110318013E39
:1001B8000319DF28BA07340803110318013E03198D
:1001C800E628BB07350803110318013E0319ED287B
:1001D800BC074308B200B301B401B5013208BE0739
:1001E800330803110318013E0319FB28BF0734081D
:1001F80003110318013E03190229C007350803112A
:100208000318013E03190929C1072C08B200320856
:10021800F3002E080A128A11CF270A128A117408CD
:1002280083120313C3007308C2004208B200B3016B
:10023800B401B5013208B907330803110318013EA8
:1002480003192729BA07340803110318013E0319B3
:100258002E29BB07350803110318013E0319352958
:10026800BC074308B200B301B401B5013208BE07A8
:10027800330803110318013E03194329BF07340843
:1002880003110318013E03194A29C0073508031151
:100298000318013E03195129C1070830B2000310A1
:1002A800B90DBA0DBB0DBC0DB20B53292B08B2000A
:1002B8003208F3002E080A128A11CF270A128A116F
:1002C800740883120313C3007308C2004208B20003
:1002D8004308B300B401B5013208B9073308031164
:1002E8000318013E03197929BA07340803110318C2
:1002F800013E03198029BB07350803110318013E85
:1003080003198729BC072A08B2003208F3002F080E
:100318000A128A11CF270A128A117408831203134A
:10032800C3007308C2004208B2004308B300B40116
:10033800B5013208B907330803110318013E031940
:10034800A629BA07340803110318013E0319AD2979
:10035800BB07350803110318013E0319B429BC076C
:100368000830B2000310B90DBA0DBB0DBC0DB20BAD
:10037800B6292A08B2003208F3002E080A128A1198
:10038800CF270A128A11740883120313C300730853
:10039800C2004208B2004308B300B401B5013208F4
:1003A800B907330803110318013E0319DC29BA07FA
:1003B800340803110318013E0319E329BB07350864
:1003C80003110318013E0319EA29BC072B08B200E0
:1003D8003208F30030080A128A11CF270A128A114C
:1003E800740883120313C3007308C2004208B200E2
:1003F8004308B300B401B5013208BE07330803113E
:100408000318013E0319092ABF073408031103180A
:10041800013E0319102AC007350803110318013ECD
:100428000319172AC1072C08B2003208F3002F0855
:100438000A128A11CF270A128A1174088312031329
:10044800C3007308C2004208B2004308B300B401F5
:10045800B5013208BE07330803110318013E03191A
:10046800362ABF07340803110318013E03193D2A31
:10047800C007350803110318013E0319442AC107B0
:100488002C08B2003208F30030080A128A11CF276C
:100498000A128A11740883120313C3007308C20076
:1004A8004208B2004308B300B401B5010830031094
:1004B800B20DB30DB40DB50DFF3E031D5B2A320816
:1004C800BE07330803110318013E03196C2ABF073E
:1004D800340803110318013E0319732AC0073508AD
:1004E80003110318013E03197A2AC1073908B2001B
:1004F8003A08B3003B08B4003C08B50018300310B4
:10050800B50CB40CB30CB20CFF3E031D832A3208A1
:10051800BE07330803110318013E0319942ABF07C5
:10052800340803110318013E03199B2AC007350834
:1005380003110318013E0319A22AC1070830B200AB
:100548000310B90DBA0DBB0DBC0DB20BA42A3D08A2
:100558003807B200B301B30D3208823EC200330837
:100568000318013EFF3EC300D62A0130B200031033
:10057800BE0DBF0DC00DC10DB20BBB2ABC1FC52AD5
:10058800C62AC72A3E140130B2000310B90DBA0DAD
:10059800BB0DBC0DB20BC92AFF30C2070318C30A32
:1005A800FF30C307C01FD92ADA2AB92AB801BC1FED
:1005B800DE2ADF2AFB2AFF303905B200FF303A0570
:1005C800B300FF303B05B4007F303C05B50035086B
:1005D8003404330432040319F22AF32AF62AB80140
:1005E800B80AFB2A3E1CF92AFA2AFB2AF32A3808F9
:1005F8000319FF2A002B312B0130BE0700300318E6
:100608000130BF07003003180130C007003003185D
:100618000130C107411C112B122B312B3E08B200AF
:100628003F08B3004008B4004108B5000130B600E7
:10063800350DB50CB40CB30CB20CB60B1C2B35082D
:10064800C1003408C0003308BF003208BE000130C2
:10065800C2070318C30A0030C3074308803AFF00E3
:1006680080307F02031D3A2BFF304202031C3D2BD2
:100678003E2B492B7F3083120313C1008030C0000A
:100688000030BF000030BE007E2B831203134308E6
:10069800803AFF0080307F02031D542B0130420254
:1006A8000318572B582B642B003083120313C100F7
:1006B8000030C0000030BF000030BE00B7017E2B04
:1006C800831203134208B2003208BD00FF30BE0592
:1006D800FF30BF057F30C0050030C1053D1C752BBC
:1006E800762B772BC0173D08B2000310320CB300ED
:1006F8003308C1003708B2003208C1044108AD0010
:100708004008AC003F08AB003E08AA00080083126E
:10071800031347088039CC004C08D4004708CC00A4
:100728004C07CD004D08D600C61F9B2B9C2B9D2B3C
:10073800561456080319A12BA22BB22B560A031DD7
:10074800A62BA72BAF2B0030C7000030C600003007
:10075800C5000030C400C617C701BA2B0030C70057
:100768000030C6000030C5000030C4004B08803996
:10077800CC004C08D500550854060319C42BC52BCA
:10078800C62B54174B08CC004C07CD004D08D5009C
:10079800CA1FCF2BD02BD12B551455080319D52B95
:1007A800D62BE62B550A031DDA2BDB2BE32B003067
:1007B800CB000030CA000030C9000030C800CA179A
:1007C800CB01EE2B0030CB000030CA000030C9004E
:1007D8000030C800560855020318F32BF42B382CA8
:1007E800541FF72BF82BFC2B8030CC004C08D40678
:1007F8005608CC004C08D7005508CC004C08D60049
:100808005708CC004C08D5004408CC004C08D70049
:100818004808CC004C08C4005708CC004C08C80055
:100828004508CC004C08D7004908CC004C08C50046
:100838005708CC004C08C9004608CC004C08D70023
:100848004A08CC004C08C6005708CC004C08CA001F
:100858004708CC004C08D7004B08CC004C08C70010
:100868005708CC004C08CB00D7015508CC00CD0167
:100878004D08CF0056084C02CE00031CCF034F088A
:10088800803AFF0080307F02031D4C2C1A304E0244
:10089800031C4F2C502C8D2C83120313470846043D
:1008A80045044404031D592C5B2C01305C2C00309A
:1008B800CC004C08D7000030C7000030C60000301C
:1008C800C5000030C4005508CC004C08D600952C53
:1008D800571C6F2C702C792C5708CC0003104C0C2B
:1008E8000138CD004D08D7007B2C0310D70C441CD1
:1008F8007E2C7F2C802CD7170130CC00470DC70CDD
:10090800C60CC50CC40CCC0B822C0130CC004C0896
:10091800D6078312031355085602031C942C952CF2
:100928006C2C541B982C992CE42C5608031D9D2CD8
:100938009E2CA72C0030C7000030C6000030C50030
:100948000030C400122E4808C407490803110318D0
:10095800013E0319B02CC5074A0803110318013ECC
:100968000319B72CC6074B0803110318013E0319D6
:10097800BE2CC707471CC12CC22C982D571CC52C50
:10098800C62CCF2C5708CC0003104C0C0138CD00D6
:100998004D08D700D12C0310D70C441CD42CD52CCF
:1009A800D62CD7170130CC00470DC70CC60CC50C88
:1009B800C40CCC0BD82C0130CC004C08D607982D91
:1009C8004708803AFF004B08803A7F02031DF62C47
:1009D8004A084602031DF62C49084502031DF62C59
:1009E800480844020318F92CFA2C522DFF30CC0089
:1009F800FF30CD00FF30CE00FF30CF004808D000D8
:100A08004908D1004A08D2004B08D3004408D00254
:100A18004508031C450F112D122DD1024608031C51
:100A2800460F172D182DD2024708031C470F1D2DFE
:100A38001E2DD3025008CC0751080318510F252D3D
:100A4800262DCD0752080318520F2B2D2C2DCE071B
:100A580053080318530ACF074F08C7004E08C600AB
:100A68004D08C5004C08C4008030CC004C08D406A2
:100A7800D709D70A5708031D422D432D602D013091
:100A8800C407003003180130C507003003180130CF
:100A9800C607003003180130C707602D4808C40294
:100AA8004908031C490FC5024A08031C4A0FC6021D
:100AB8004B08031C4B0FC70247084604450444046F
:100AC800031D672D682D942D5708031D6C2D6D2D62
:100AD800942D0030C7000030C6000030C50000303B
:100AE800C400122E0130CC000310C40DC50DC60D74
:100AF800C70DCC0B782DD71F822D832D842D441440
:100B0800571C872D882D8B2D0314D70D8D2D031081
:100B1800D70D56080319912D922D942D0130D60228
:100B2800C61F972D982D762DD501D71F9C2D9D2D4D
:100B3800AB2D57087F390319A22DA32DA62DD5015A
:100B4800D50AAB2D441CA92DAA2DAB2DA32D5508D4
:100B58000319AF2DB02DE42D0130C4070030031860
:100B68000130C507003003180130C60700300318EC
:100B78000130C707471CC12DC22DE42D4408CC0005
:100B88004508CD004608CE004708CF000130D00008
:100B98004F0DCF0CCE0CCD0CCC0CD00BCC2D4F0860
:100BA800C7004E08C6004D08C5004C08C400560AC8
:100BB8000319DF2DE02DE42D0130CC004C08D607B9
:100BC800560A0319E82DE92DEE2D5608031DED2DC3
:100BD800EE2DFC2D0030C7000030C6000030C500E7
:100BE8000030C4005608031DFA2DFB2DFC2DD4013E
:100BF800561CFF2D002E022EC617062E7F30CC0065
:100C08004C08C6055608CC0003104C0CCD004D0806
:100C1800C700D41F102E112E122EC7170800F70078
:100C2800831203139F18192E1A2ECE2FB32F77086D
:100C3800A000A101A201A3012308F6002208F500E3
:100C48002108F4002008F30001300A128A1544270D
:100C58000A128A11760883120313B1007508B000CE
:100C68007408AF007308AE003E30AD007C30AC00B5
:100C7800ED30AB009130AA000A128A112A200A121C
:100C88008A11831203132D08CB002C08CA002B08E5
:100C9800C9002A08C8004230C7007830C6000030B2
:100CA800C5000030C4000A128A118B230A128A1167
:100CB800831203134708DB004608DA004508D90009
:100CC8004408D8000A128A15C8260A128A11831203
:100CD8000313580895001F08C33904389F002030B3
:100CE80083160313A000A00B772E000083120313B2
:100CF8009F14CE2F7708A000A101A201A301230809
:100D0800F6002208F5002108F4002008F30001305D
:100D18000A128A1544270A128A11760883120313C5
:100D2800B1007508B0007408AF007308AE003D301C
:100D3800AD004830AC00B430AB003930AA000A121C
:100D48008A112A200A128A11831203132D08CB0054
:100D58002C08CA002B08C9002A08C8004030C70060
:100D6800E030C6000030C5000030C4000A128A1105
:100D78008B230A128A11831203134708DB004608E3
:100D8800DA004508D9004408D8000A128A15C8268E
:100D98000A128A1183120313580883160313A40036
:100DA8002408F90079088312031388001F08C3393F
:100DB80008389F00523083160313A000A00BE22EC0
:100DC8000000831203139F14CE2F7708A000A101FF
:100DD800A201A3012308F6002208F5002108F40067
:100DE8002008F30001300A128A1544270A128A11D2
:100DF800760883120313B1007508B0007408AF00B9
:100E08007308AE003E30AD007C30AC00ED30AB0076
:100E18009130AA000A128A112A200A128A11831212
:100E280003132D08CB002C08CA002B08C9002A0878
:100E3800C8004230C7007830C6000030C500003016
:100E4800C4000A128A118B230A128A11831203130F
:100E58004708DB004608DA004508D9004408D800EE
:100E68000A128A15C8260A128A118312031358080F
:100E78009B001F08C3390C389F00203083160313CA
:100E8800A000A00B452F0000831203139F14CE2F40
:100E98007708A000A101A201A3012308F6002208F7
:100EA800F5002108F4002008F30001300A128A1521
:100EB80044270A128A11760883120313B1007508B1
:100EC800B0007408AF007308AE003D30AD00483084
:100ED800AC00B430AB003930AA000A128A112A20BB
:100EE8000A128A11831203132D08CB002C08CA009A
:100EF8002B08C9002A08C8004030C700E030C600E7
:100F08000030C5000030C4000A128A118B230A126F
:100F18008A11831203134708DB004608DA004508E4
:100F2800D9004408D8000A128A15C8260A128A115C
:100F380083120313580883160313A400240883128A
:100F48000313E800C3309F05523083160313A00033
:100F5800A00BAC2F0000831203139F14CE2F1F0C7D
:100F680083160313A000200C0F39A100A201220848
:100F7800003A0319C02FCE2F2108003A03191B2E5F
:100F8800013A03197E2E033A0319E92E013A03198F
:100F98004C2FCE2F080083120313A400A001A10137
:100FA8007308F500F6017508A2007608A300241C52
:100FB800DE2FDF2FE52F2208A0070318A10A230838
:100FC800A10701300310A20DA30DFF3E031DE62F5C
:100FD8000310A40C2408031DF22FF32FDB2F210884
:0C0FE800F4002008F300080072346734A5
:101A5000F4007308831203178D0074088C0083163A
:101A600003178C130C158B1355308D00AA308D0085
:101A70008C14831203130D1E3E2D3F2D392D0D1294
:101A8000831603170C118B1708000A128A15622699
:101A90000A128A15831203136A080A128A1113267E
:101AA0000A128A1567307806031D572D582D5D2DB3
:101AB0000A128A1504260A128A1572307806031D46
:101AC000622D632D4A2D0A128A15AB250A128A153A
:101AD0004A2D0A128A110C28831203130C1F712D30
:101AE000722D772D1E08F0007008EA000C138C1E72
:101AF0007A2D7B2D7F2D1A08F0007008F8000B1D41
:101B0000822D832DA32D0130F0007008FA077A088A
:101B10006802031C8C2D8D2D8F2D8715902D87111C
:101B20007A087902031C952D962D982D0716992D6C
:101B30000712FA307A02031C9E2D9F2DA02DFA0168
:101B4000B03081000B118C1072088A00710E830076
:101B5000FE0E7E0E0900F801F32DF30100300A128B
:101B60008A1528250A128A15F30101300A128A15EE
:101B700028250A128A15F30102300A128A1528252F
:101B80000A128A1583120313E601E60A032EF301F3
:101B900003300A128A1528250A128A15F301043027
:101BA0000A128A1528250A128A15F30105300A122D
:101BB0008A1528250A128A15032EF30106300A1207
:101BC0008A1528250A128A15F30107300A128A1588
:101BD00028250A128A15F30108300A128A152825C9
:101BE0000A128A15032E0030003A0319F82D032E2D
:101BF0000030003A0319AD2D013A0319C72D033AFD
:101C00000319DD2D032E0800F8014C2EF3010030DE
:101C10000A128A1528250A128A15F30101300A12C0
:101C20008A1528250A128A15F30102300A128A152C
:101C300028250A128A1583120313E601E60A612E8B
:101C4000F30103300A128A1528250A128A15F301B6
:101C500004300A128A1528250A128A15F301053064
:101C60000A128A1528250A128A15612EF3010630F8
:101C70000A128A1528250A128A15F30107300A125A
:101C80008A1528250A128A15F30108300A128A15C6
:101C900028250A128A15612E831203136608F5009F
:101CA000F6017608003A0319562E612E7508003A9F
:101CB0000319062E013A0319202E033A0319362E72
:101CC000612E08001F3083160317880089011F301A
:101CD00083160313850003308600870188010713EC
:101CE00087178312031385018601870188018830D5
:101CF000831603138100B0308312031381008B1706
:101D00000B178B160B11831603130F140F178F1657
:101D10000F12831203138C1026309200C3309F05DC
:101D20001F08C33908389F002130F300F30B962EAB
:101D3000831603130C17831203130C131F141F08AD
:101D40003F3940389F00831603139F131F129F12C1
:101D5000FA3092000C308312031397000F309D006D
:101D60008C12831603138C120C1218139816181267
:101D700018158312031318131816981783160317D0
:101D80008711193083160313990001309A00080057
:101D90000310831203135A0D5B0DDC005C08E20094
:101DA0006208031DD42ED52EDE2E0030DB0000305D
:101DB000DA000030D9000030D800432F5808DC008A
:101DC0005908DD005A08DE005B08DF001F300310F1
:101DD000DF0CDE0CDD0CDC0CFF3E031DE72E5C0887
:101DE000E0006008E100DA17FF30D805FF30D905C0
:101DF000FF30DA050030DB059630E202E21F012FEA
:101E0000022F1C2F6208803A973E0318082F092FD3
:101E10000A2FD52E01300310DB0CDA0CD90CD80CAC
:101E2000FF3E031D0B2F0130DC005C08E207031DA1
:101E30001A2F1B2F0A2F332F20306202031C212F51
:101E4000222F2E2FD52E0130DC000310D80DD90DF6
:101E5000DA0DDB0DDC0B252F0130E2026208031DD9
:101E6000322F332F232F61080319372F382F432F99
:101E7000D809D909DA09DB09D80A0319D90A0319DB
:101E8000DA0A0319DB0A080083120313A4002408EA
:101E900003194B2F4C2F602FF61F4F2F502F602F01
:101EA0007309A6007409A7007509A8007609A9009E
:101EB000A60A0319A70A0319A80A0319A90A682F71
:101EC0007608A9007508A8007408A7007308A60082
:101ED0007608750474047304031D6F2F702F792F17
:101EE0000030F6000030F5000030F4000030F30060
:101EF000FF2F9630A0002008A5008B2F0130A000F6
:101F00002008A50701300310A90CA80CA70CA60CEB
:101F1000FF3E031D832FFE302905031D902F912FB7
:101F20007E2FAD2F0130A0002008A5070130A607A5
:101F3000003003180130A707003003180130A8074C
:101F4000003003180130A90701300310A90CA80CB8
:101F5000A70CA60CFF3E031DA52FFF302905031D6E
:101F6000B22FB32F922FBF2F0130A5020130A00056
:101F70000310A60DA70DA80DA90DA00BB82FA81B27
:101F8000C22FC32FC92F023025020318C82FC92F13
:101F9000B42F2518CC2FCD2FD52FFF30A605FF301D
:101FA000A7057F30A805FF30A9050310A50C25085B
:101FB000A000A101A201A30118300310A00DA10DE2
:101FC000A20DA30DFF3E031DDD2F2008A60421084E
:101FD000A7042208A8042308A90424080319F12F40
:101FE000F22FF72FF61FF52FF62FF72FA917290835
:101FF000F6002808F5002708F4002608F30008007A
:04400E00D420FF3F7C
:00000001FF
