:020000040000FA
:060000000A128A11122809
:10000800FE00030E83120313E9000408EA000A083D
:10001800EB007F08EC000A168A11EC2C0A128A11F0
:1000280015288317D830FD001230FE004F30FF002E
:10003800903084000A168A119B210A128A117030A6
:10004800FD000830FE000330FF00103084000A165F
:100058008A119B210A128A1183160317D801D90124
:10006800DA01DB01DC01DD01DE01DF01E001E10194
:1000780083160313EC01ED01EE01EF018312031364
:10008800ED01EE01EF0183010A168A117829831622
:10009800031331088039B6003608BB003108B600B2
:1000A8003607B7003708C100B01F5B285C285D28F9
:1000B800411441080319612862287128410A031D67
:1000C800662867286F280030B1000030B000003083
:1000D800AF000030AE00B01779280030B100003012
:1000E800B0000030AF000030AE0035088039B600EF
:1000F8003608BB063508B6003607B7003708C00013
:10010800B41F8728882889284014400803198D2897
:100118008E289D28400A031D922893289B2800308A
:10012800B5000030B4000030B3000030B200B4179E
:10013800A5280030B5000030B4000030B30000300E
:10014800B20040080319A928AA28AF284108031DAE
:10015800AE28AF28B8280030B1000030B000003019
:10016800AF000030AE00AB2B2E08B6003608A0005A
:1001780034080A168A11EE210A128A11831603130B
:100188002108C7002008C6004608B600B701B80114
:10019800B9013908BF003808BE003708BD00360865
:1001A800BC004708B600B701B801B9013908C50055
:1001B8003808C4003708C3003608C2002F08B60044
:1001C8003608A00033080A168A11EE210A128A118D
:1001D800831603132108C7002008C6004608B60086
:1001E800B701B801B9013608BC073708031103186D
:1001F800013E03190029BD07380803110318013E01
:1002080003190729BE07390803110318013E03190A
:100218000E29BF074708B600B701B801B90136086B
:10022800C207370803110318013E03191C29C30725
:10023800380803110318013E03192329C407390894
:1002480003110318013E03192A29C5073008B6000F
:100258003608A00032080A168A11EE210A128A11FD
:10026800831603132108C7002008C6004608B600F5
:10027800B701B801B9013608BC07370803110318DC
:10028800013E03194829BD07380803110318013E28
:1002980003194F29BE07390803110318013E031932
:1002A8005629BF074708B600B701B801B901360893
:1002B800C207370803110318013E03196429C3074D
:1002C800380803110318013E03196B29C4073908BC
:1002D80003110318013E03197229C5070830B60037
:1002E8000310BC0DBD0DBE0DBF0DB60B74292F0834
:1002F800B6003608A00032080A168A11EE210A1242
:100308008A11831603132108C7002008C60046086F
:10031800B6004708B700B801B9013608BC07370866
:1003280003110318013E03199A29BD073808031160
:100338000318013E0319A129BE0739080311031840
:10034800013E0319A829BF072E08B6003608A000E9
:1003580033080A168A11EE210A128A11831603132A
:100368002108C7002008C6004608B6004708B7009D
:10037800B801B9013608BC07370803110318013E54
:100388000319C729BD07380803110318013E0319CB
:10039800CE29BE07390803110318013E0319D529D0
:1003A800BF070830B6000310BC0DBD0DBE0DBF0D54
:1003B800B60BD7292E08B6003608A00032080A1650
:1003C8008A11EE210A128A11831603132108C70025
:1003D8002008C6004608B6004708B700B801B901AA
:1003E8003608BC07370803110318013E0319FD2915
:1003F800BD07380803110318013E0319042ABE0774
:10040800390803110318013E03190B2ABF072F08E7
:10041800B6003608A00034080A168A11EE210A121E
:100428008A11831603132108C7002008C60046084E
:10043800B6004708B700B801B9013608C20737083F
:1004480003110318013E03192A2AC30738080311A8
:100458000318013E0319312AC40739080311031888
:10046800013E0319382AC5073008B6003608A0002F
:1004780033080A168A11EE210A128A118316031309
:100488002108C7002008C6004608B6004708B7007C
:10049800B801B9013608C207370803110318013E2D
:1004A8000319572AC307380803110318013E031913
:1004B8005E2AC407390803110318013E0319652A87
:1004C800C5073008B6003608A00034080A168A1195
:1004D800EE210A128A11831603132108C700200887
:1004E800C6004608B6004708B700B801B901083089
:1004F8000310B60DB70DB80DB90DFF3E031D7C2ACC
:100508003608C207370803110318013E03198D2A5C
:10051800C307380803110318013E0319942AC407B6
:10052800390803110318013E03199B2AC5073C0823
:10053800B6003D08B7003E08B8003F08B9001830BB
:100548000310B90CB80CB70CB60CFF3E031DA42A57
:100558003608C207370803110318013E0319B52AE4
:10056800C307380803110318013E0319BC2AC4073E
:10057800390803110318013E0319C32AC5070830B7
:10058800B6000310BC0DBD0DBE0DBF0DB60BC52AC0
:1005980041084007B600B701B70D3608823EC600CD
:1005A80037080318013EFF3EC700F72A0130B6009E
:1005B8000310C20DC30DC40DC50DB60BDC2ABF1F39
:1005C800E62AE72AE82A42140130B6000310BC0DD7
:1005D800BD0DBE0DBF0DB60BEA2AFF30C6070318C6
:1005E800C70AFF30C707C41FFA2AFB2ADA2AC00144
:1005F800BF1FFF2A002B1C2BFF303C05B600FF3025
:100608003D05B700FF303E05B8007F303F05B90013
:1006180039083804370436040319132B142B172B05
:10062800C001C00A1C2B421C1A2B1B2B1C2B142B81
:1006380040080319202B212B522B0130C207003010
:1006480003180130C307003003180130C407003015
:1006580003180130C507451C322B332B522B420897
:10066800B6004308B7004408B8004508B90001308F
:10067800BA00390DB90CB80CB70CB60CBA0B3D2B37
:100688003908C5003808C4003708C3003608C20056
:100698000130C6070318C70A0030C7074708803A61
:1006A800FF0080307F02031D5B2BFF304602031CD6
:1006B8005E2B5F2B6A2B7F3083160313C5008030B7
:1006C800C4000030C3000030C2009F2B8316031300
:1006D8004708803AFF0080307F02031D752B0130E8
:1006E80046020318782B792B852B003083160313C9
:1006F800C5000030C4000030C3000030C200BB0198
:100708009F2B831603134608B6003608C100FF3036
:10071800C205FF30C3057F30C4050030C505411C44
:10072800962B972B982BC4174108B6000310360C4C
:10073800B7003708C5003B08B6003608C5044508A9
:10074800B1004408B0004308AF004208AE000800FA
:100758008312031323088039A8002808AD00230852
:10076800A8002807A9002908B300A21FBC2BBD2B8D
:10077800BE2B331433080319C22BC32BD22B330AD5
:10078800031DC72BC82BD02B0030A3000030A200BC
:100798000030A1000030A000A217DA2B0030A3001F
:1007A8000030A2000030A1000030A00027088039E6
:1007B800A8002808AD062708A8002807A9002908C6
:1007C800B200A61FE82BE92BEA2B321432080319D2
:1007D800EE2BEF2BFE2B320A031DF32BF42BFC2BF5
:1007E8000030A7000030A6000030A5000030A400AB
:1007F800A617062C0030A7000030A6000030A50080
:100808000030A400320803190A2C0B2C102C3308D2
:10081800031D0F2C102C192C0030A3000030A2004F
:100828000030A1000030A0000C2F2008A8002808E4
:10083800F00026080A168A11C7210A128A117108BF
:1008480083120313B9007008B8003808A800A9017A
:10085800AA01AB012B08B1002A08B0002908AF0093
:100868002808AE003908A800A901AA01AB012B0885
:10087800B7002A08B6002908B5002808B4002108DE
:10088800A8002808F00025080A168A11C7210A12AC
:100898008A11710883120313B9007008B800380868
:1008A800A800A901AA01AB012808AE07290803116D
:1008B8000318013E0319612CAF072A080311031816
:1008C800013E0319682CB0072B0803110318013ED9
:1008D80003196F2CB1073908A800A901AA01AB01B7
:1008E8002808B407290803110318013E03197D2CB1
:1008F800B5072A0803110318013E0319842CB6070B
:100908002B0803110318013E03198B2CB707220883
:10091800A8002808F00024080A168A11C7210A121C
:100928008A11710883120313B9007008B8003808D7
:10093800A800A901AA01AB012808AE0729080311DC
:100948000318013E0319A92CAF072A08031103183D
:10095800013E0319B02CB0072B0803110318013E00
:100968000319B72CB1073908A800A901AA01AB01DE
:100978002808B407290803110318013E0319C52CD8
:10098800B5072A0803110318013E0319CC2CB60732
:100998002B0803110318013E0319D32CB70708309D
:1009A800A8000310AE0DAF0DB00DB10DA80BD52CDE
:1009B8002108A8002808F00024080A168A11C7216F
:1009C8000A128A11710883120313B9007008B8005B
:1009D8003808A8003908A900AA01AB012808AE0701
:1009E800290803110318013E0319FB2CAF072A0835
:1009F80003110318013E0319022DB0072B08031138
:100A08000318013E0319092DB1072008A80028087A
:100A1800F00025080A168A11C7210A128A117108DE
:100A280083120313B9007008B8003808A800390801
:100A3800A900AA01AB012808AE0729080311031869
:100A4800013E0319282DAF072A0803110318013E98
:100A580003192F2DB0072B0803110318013E0319A2
:100A6800362DB1070830A8000310AE0DAF0DB00D3C
:100A7800B10DA80B382D2008A8002808F00024087C
:100A88000A168A11C7210A128A11710883120313E0
:100A9800B9007008B8003808A8003908A900AA01E8
:100AA800AB012808AE07290803110318013E0319F2
:100AB8005E2DAF072A0803110318013E0319652D9F
:100AC800B0072B0803110318013E03196C2DB10759
:100AD8002108A8002808F00026080A168A11C7214C
:100AE8000A128A11710883120313B9007008B8003A
:100AF8003808A8003908A900AA01AB012808B407DA
:100B0800290803110318013E03198B2DB5072A087C
:100B180003110318013E0319922DB6072B08031180
:100B28000318013E0319992DB7072208A8002808C1
:100B3800F00025080A168A11C7210A128A117108BD
:100B480083120313B9007008B8003808A8003908E0
:100B5800A900AA01AB012808B40729080311031842
:100B6800013E0319B82DB5072A0803110318013EE1
:100B78000319BF2DB6072B0803110318013E0319EB
:100B8800C62DB7072208A8002808F00026080A166C
:100B98008A11C7210A128A11710883120313B90036
:100BA8007008B8003808A8003908A900AA01AB01E4
:100BB80008300310A80DA90DAA0DAB0DFF3E031DAB
:100BC800DD2D2808B407290803110318013E03196D
:100BD800EE2DB5072A0803110318013E0319F52D58
:100BE800B6072B0803110318013E0319FC2DB7079C
:100BF8002E08A8002F08A9003008AA003108AB0069
:100C080018300310AB0CAA0CA90CA80CFF3E031D4E
:100C1800052E2808B407290803110318013E0319F3
:100C2800162EB5072A0803110318013E03191D2EB5
:100C3800B6072B0803110318013E0319242EB70722
:100C48000830A8000310AE0DAF0DB00DB10DA80B04
:100C5800262E33083207A800A901A90D2808823ECC
:100C6800B80029080318013EFF3EB900582E01308C
:100C7800A8000310B40DB50DB60DB70DA80B3D2E89
:100C8800B11F472E482E492E34140130A8000310F6
:100C9800AE0DAF0DB00DB10DA80B4B2EFF30B80740
:100CA8000318B90AFF30B907B61F5B2E5C2E3B2E1E
:100CB800B201B11F602E612E7D2EFF302E05A800D7
:100CC800FF302F05A900FF303005AA007F3031051D
:100CD800AB002B082A04290428040319742E752E46
:100CE800782EB201B20A7D2E341C7B2E7C2E7D2EEE
:100CF800752E32080319812E822EB32E0130B407C7
:100D0800003003180130B507003003180130B6076A
:100D1800003003180130B707371C932E942EB32EDA
:100D28003408A8003508A9003608AA003708AB001F
:100D38000130AC002B0DAB0CAA0CA90CA80CAC0B09
:100D48009E2E2B08B7002A08B6002908B5002808E7
:100D5800B4000130B8070318B90A0030B9073908D8
:100D6800803AFF0080307F02031DBC2EFF3038021E
:100D7800031CBF2EC02ECB2E7F3083120313B70067
:100D88008030B6000030B5000030B400002F831268
:100D980003133908803AFF0080307F02031DD62EE6
:100DA800013038020318D92EDA2EE62E00308312CD
:100DB8000313B7000030B6000030B5000030B400AF
:100DC800AD01002F831203133808A8002808B300C8
:100DD800FF30B405FF30B5057F30B6050030B705E4
:100DE800331CF72EF82EF92EB6173308A800031077
:100DF800280CA9002908B7002D08A8002808B7045E
:100E08003708A3003608A2003508A1003408A0005E
:100E1800080083160313A80028080319142F152F98
:100E2800292FA31F182F192F292F2009AA002109BC
:100E3800AB002209AC002309AD00AA0A0319AB0ACA
:100E48000319AC0A0319AD0A312F2308AD00220893
:100E5800AC002108AB002008AA00230822042104C2
:100E68002004031D382F392F422F0030A3000030F3
:100E7800A2000030A1000030A000C82F9630A400C6
:100E88002408A900542F0130A4002408A907013020
:100E98000310AD0CAC0CAB0CAA0CFF3E031D4C2F81
:100EA800FE302D05031D592F5A2F472F762F01305D
:100EB800A4002408A9070130AA070030031801304C
:100EC800AB07003003180130AC07003003180130BD
:100ED800AD0701300310AD0CAC0CAB0CAA0CFF3EF7
:100EE800031D6E2FFF302D05031D7B2F7C2F5B2FDD
:100EF800882F0130A9020130A4000310AA0DAB0D00
:100F0800AC0DAD0DA40B812FAC1B8B2F8C2F922F0A
:100F1800023029020318912F922F7D2F2918952F1F
:100F2800962F9E2FFF30AA05FF30AB057F30AC050A
:100F3800FF30AD050310A90C2908A400A501A601DE
:100F4800A70118300310A40DA50DA60DA70DFF3E8F
:100F5800031DA62F2408AA042508AB042608AC0400
:100F68002708AD0428080319BA2FBB2FC02FA31FC9
:100F7800BE2FBF2FC02FAD172D08A3002C08A2002D
:100F88002B08A1002A08A00008000330F2008A30CC
:100F9800F1005530F000F00BCF2FF10BCF2FF20BF3
:100FA800CF2FD62F83120313ED010130F000700804
:100FB800ED076D084C3E8400831700089900413006
:100FC800F100EE30F000F00BE72FF10BE72F0000F7
:100FD8002530831203136D02031CF32FF42FD92F2E
:100FE8008C1EF72FF82FF42F83160317D80108004B
:1010060020340A34513475346534203473346534ED
:10101600723476346F346D346F3474346F347234A2
:1010260020346434653473346534613420346D346B
:101036006F347634653472343F340A3431342934AB
:1010460020345034443420340A34323429342034A1
:101056005034493420340A34333429342034433468
:10106600443420340A343434293420344334493463
:101076000A3400340034003420340A3449346E34DF
:1010860067347234653473346534203475346E34A1
:1010960020346E3475346D34653472346F342034D4
:1010A60065346E347434723465342034303420340C
:1010B6007934203439340A340034003400340034AE
:1010C600F80078080319682869287D28F31F6C281A
:1010D6006D287D287009FA007109FB007209FC0071
:1010E6007309FD00FA0A0319FB0A0319FC0A03191E
:1010F600FD0A85287308FD007208FC007108FB00D4
:101106007008FA007308720471047004031D8C28B9
:101116008D2896280030F3000030F2000030F100F0
:101126000030F0001C299630F4007408F900A82855
:101136000130F4007408F90701300310FD0CFC0CB3
:10114600FB0CFA0CFF3E031DA028FE307D05031D97
:10115600AD28AE289B28CA280130F4007408F90788
:101166000130FA07003003180130FB07003003187E
:101176000130FC07003003180130FD070130031071
:10118600FD0CFC0CFB0CFA0CFF3E031DC228FF30C5
:101196007D05031DCF28D028AF28DC280130F902B1
:1011A6000130F4000310FA0DFB0DFC0DFD0DF40BE0
:1011B600D528FC1BDF28E028E62802307902031830
:1011C600E528E628D1287918E928EA28F228FF3008
:1011D600FA05FF30FB057F30FC05FF30FD050310E7
:1011E600F90C7908F400F501F601F701183003103F
:1011F600F40DF50DF60DF70DFF3E031DFA287408E4
:10120600FA047508FB047608FC047708FD047808E0
:1012160003190E290F291429F31F1229132914293A
:10122600FD177D08F3007C08F2007B08F1007A08C0
:10123600F0000800831203139F1822292329EF2A9E
:10124600D62A831603136F0883120313D900DA0113
:10125600DB01DC015C08F3005B08F2005A08F100D0
:101266005908F00001300A128A1563200A128A15FD
:10127600730883120313A7007208A6007108A5005D
:101286007008A4003E30A3007C30A200ED30A1001F
:101296009130A0000A128A11AC230A128A15831211
:1012A60003132308C1002208C0002108BF0020083C
:1012B600BE004230BD007830BC000030BB000030BC
:1012C600BA000A128A15F0220A128A15831203132B
:1012D6003D08D1003C08D0003B08CF003A08CE00BC
:1012E6000A168A1165230A128A15831203134E08F9
:1012F60095001508D900590883160317DB008312D9
:1013060003131F08C33904389F00203083120313C8
:10131600D900D90B8C290000831203139F14EF2ADE
:10132600831603136E0883120313D900DA01DB0157
:10133600DC015C08F3005B08F2005A08F10059086A
:10134600F00001300A128A1563200A128A15730802
:1013560083120313A7007208A6007108A50070087F
:10136600A4003D30A3004830A200B430A1003930BB
:10137600A0000A128A11AC230A128A1583120313DB
:101386002308C1002208C0002108BF002008BE00B3
:101396004030BD00E030BC000030BB000030BA0079
:1013A6000A128A15F0220A128A15831203133D08BF
:1013B600D1003C08D0003B08CF003A08CE000A1600
:1013C6008A1165230A128A15831203134E08DD005B
:1013D6005D0883160317E000831203131F08C33941
:1013E60008389F00523083120313D900D90BF9290C
:1013F6000000831203139F14EF2A831603136D084C
:1014060083120313D900DA01DB01DC015C08F30067
:101416005B08F2005A08F1005908F00001300A1280
:101426008A1563200A128A15730883120313A7000C
:101436007208A6007108A5007008A4003E30A3003B
:101446007C30A200ED30A1009130A0000A128A1172
:10145600AC230A128A15831203132308C10022083B
:10146600C0002108BF002008BE004230BD00783011
:10147600BC000030BB000030BA000A128A15F02208
:101486000A128A15831203133D08D1003C08D000C6
:101496003B08CF003A08CE000A168A1165230A12C5
:1014A6008A15831203134E089B001B08D90059089E
:1014B60083160317DA00831203131F08C3390C3887
:1014C6009F00203083120313D900D90B682A00002D
:1014D600831203139F14EF2A831603136C088312D7
:1014E6000313D900DA01DB01DC015C08F3005B08B9
:1014F600F2005A08F1005908F00001300A128A1564
:1015060063200A128A15730883120313A700720850
:10151600A6007108A5007008A4003D30A30048305D
:10152600A200B430A1003930A0000A128A11AC23FF
:101536000A128A15831203132308C1002208C00069
:101546002108BF002008BE004030BD00E030BC00CE
:101556000030BB000030BA000A128A15F0220A12C7
:101566008A15831203133D08D1003C08D0003B08BE
:10157600CF003A08CE000A168A1165230A128A1588
:10158600831203134E08DD005D08EE00C3309F058D
:10159600523083120313D900D90BCF2A00008312CD
:1015A60003139F14EF2A1F0CD900590C0F39DA00C8
:1015B600DB015B08003A0319E12AEF2A5A08003AD0
:1015C60003192429013A03199329033A0319002A16
:1015D600013A03196F2AEF2A0800831203133D0804
:1015E6008039C2004208CA003D08C2004207C30053
:1015F6004308CC00BC1F002B012B022B4C144C08BB
:101606000319062B072B172B4C0A031D0B2B0C2B30
:10161600142B0030BD000030BC000030BB00003091
:10162600BA00BC17BD011F2B0030BD000030BC0046
:101636000030BB000030BA0041088039C2004208C1
:10164600CB004B084A060319292B2A2B2B2B4A17AA
:101656004108C2004207C3004308CB00C01F342B19
:10166600352B362B4B144B0803193A2B3B2B4B2BA4
:101676004B0A031D3F2B402B482B0030C100003086
:10168600C0000030BF000030BE00C017C101532BA0
:101696000030C1000030C0000030BF000030BE0086
:1016A6004C084B020318582B592B9D2B4A1F5C2BB9
:1016B6005D2B612B8030C2004208CA064C08C2006E
:1016C6004208CD004B08C2004208CC004D08C200BB
:1016D6004208CB003A08C2004208CD003E08C200CC
:1016E6004208BA004D08C2004208BE003B08C200CC
:1016F6004208CD003F08C2004208BB004D08C200A8
:101706004208BF003C08C2004208CD004008C200A3
:101716004208BC004D08C2004208C0003D08C20095
:101726004208CD004108C2004208BD004D08C20073
:101736004208C100CD014B08C200C3014308C500E1
:101746004C084202C400031CC5034508803AFF004A
:1017560080307F02031DB12B1A304402031CB42BC8
:10176600B52BF22B831203133D083C043B043A04C9
:10177600031DBE2BC02B0130C12B0030C200420816
:10178600CD000030BD000030BC000030BB00003092
:10179600BA004B08C2004208CC00FA2B4D1CD42BD1
:1017A600D52BDE2B4D08C2000310420C0138C300B6
:1017B6004308CD00E02B0310CD0C3A1CE32BE42BA1
:1017C600E52BCD170130C2003D0DBD0CBC0CBB0C8A
:1017D600BA0CC20BE72B0130C2004208CC078312B9
:1017E60003134B084C02031CF92BFA2BD12B4A1B73
:1017F600FD2BFE2B492C4C08031D022C032C0C2C14
:101806000030BD000030BC000030BB000030BA0024
:10181600772D3E08BA073F0803110318013E031946
:10182600152CBB07400803110318013E03191C2C95
:10183600BC07410803110318013E0319232CBD07F9
:101846003D1C262C272CFD2C4D1C2A2C2B2C342CF5
:101856004D08C2000310420C0138C3004308CD00F6
:10186600362C0310CD0C3A1C392C3A2C3B2CCD17B8
:101876000130C2003D0DBD0CBC0CBB0CBA0CC20B3A
:101886003D2C0130C2004208CC07FD2C3D08803AB1
:10189600FF004108803A7F02031D5B2C40083C0292
:1018A600031D5B2C3F083B02031D5B2C3E083A02DE
:1018B60003185E2C5F2CB72CFF30C200FF30C3002C
:1018C600FF30C400FF30C5003E08C6003F08C70011
:1018D6004008C8004108C9003A08C6023B08031C74
:1018E6003B0F762C772CC7023C08031C3C0F7C2C44
:1018F6007D2CC8023D08031C3D0F822C832CC90297
:101906004608C20747080318470F8A2C8B2CC307C3
:1019160048080318480F902C912CC407490803184F
:10192600490AC5074508BD004408BC004308BB007A
:101936004208BA008030C2004208CA06CD09CD0A64
:101946004D08031DA72CA82CC52C0130BA07003062
:1019560003180130BB07003003180130BC07003004
:1019660003180130BD07C52C3E08BA023F08031C08
:101976003F0FBB024008031C400FBC024108031C7A
:10198600410FBD023D083C043B043A04031DCC2C28
:10199600CD2CF92C4D08031DD12CD22CF92C00305E
:1019A600BD000030BC000030BB000030BA00772D0F
:1019B6000130C2000310BA0DBB0DBC0DBD0DC20B2C
:1019C600DD2CCD1FE72CE82CE92C3A144D1CEC2C11
:1019D600ED2CF02C0314CD0DF22C0310CD0D4C087C
:1019E6000319F62CF72CF92C0130CC02BC1FFC2C69
:1019F600FD2CDB2CCB01CD1F012D022D102D4D080A
:101A06007F390319072D082D0B2DCB01CB0A102D7D
:101A16003A1C0E2D0F2D102D082D4B080319142DD1
:101A2600152D492D0130BA07003003180130BB07C8
:101A3600003003180130BC07003003180130BD0721
:101A46003D1C262D272D492D3A08C2003B08C30010
:101A56003C08C4003D08C5000130C600450DC50C54
:101A6600C40CC30CC20CC60B312D4508BD0044087E
:101A7600BC004308BB004208BA004C0A0319442DB7
:101A8600452D492D0130C2004208CC074C0A0319E6
:101A96004D2D4E2D532D4C08031D522D532D612DCA
:101AA6000030BD000030BC000030BB000030BA0082
:101AB6004C08031D5F2D602D612DCA014C1C642D41
:101AC600652D672DBC176B2D7F30C2004208BC0503
:101AD6004C08C2000310420CC3004308BD00CA1FD5
:101AE600752D762D772DBD170800831603134B0829
:101AF6008039D0005008D8004B08D0005007D100DC
:101B06005108DA00CA1F882D892D8A2D5A145A08C1
:101B160003198E2D8F2D9F2D5A0A031D932D942D5B
:101B26009C2D0030CB000030CA000030C9000030C8
:101B3600C800CA17CB01A72D0030CB000030CA0061
:101B46000030C9000030C8004F088039D000500866
:101B5600D900590858060319B12DB22DB32D5817BF
:101B66004F08D0005007D1005108D900CE1FBC2D18
:101B7600BD2DBE2D591459080319C22DC32DD32DC1
:101B8600590A031DC72DC82DD02D0030CF000030B7
:101B9600CE000030CD000030CC00CE17CF01DB2DBB
:101BA6000030CF000030CE000030CD000030CC0039
:101BB6005A0859020318E02DE12D252E581FE42D51
:101BC600E52DE92D8030D0005008D8065A08D000FF
:101BD6005008DB005908D0005008DA005B08D00036
:101BE6005008D9004808D0005008DB004C08D00047
:101BF6005008C8005B08D0005008CC004908D00047
:101C06005008DB004D08D0005008C9005B08D00022
:101C16005008CD004A08D0005008DB004E08D0001E
:101C26005008CA005B08D0005008CE004B08D00010
:101C36005008DB004F08D0005008CB005B08D000EE
:101C46005008CF00DB015908D000D1015108D3005C
:101C56005A085002D200031CD3035308803AFF00EF
:101C660080307F02031D392E1A305202031C3C2E8F
:101C76003D2E7A2E831603134B084A044904480462
:101C8600031D462E482E0130492E0030D000500844
:101C9600DB000030CB000030CA000030C900003045
:101CA600C8005908D0005008DA00822E5B1C5C2E52
:101CB6005D2E662E5B08D0000310500C0138D10053
:101CC6005108DB00682E0310DB0C481C6B2E6C2EB3
:101CD6006D2EDB170130D0004B0DCB0CCA0CC90C96
:101CE600C80CD00B6F2E0130D0005008DA078316CF
:101CF600031359085A02031C812E822E592E581B93
:101D0600852E862ED12E5A08031D8A2E8B2E942EB2
:101D16000030CB000030CA000030C9000030C800D7
:101D2600FF2F4C08C8074D0803110318013E03197D
:101D36009D2EC9074E0803110318013E0319A42E50
:101D4600CA074F0803110318013E0319AB2ECB0730
:101D56004B1CAE2EAF2E852F5B1CB22EB32EBC2E87
:101D66005B08D0000310500C0138D1005108DB008D
:101D7600BE2E0310DB0C481CC12EC22EC32EDB1751
:101D86000130D0004B0DCB0CCA0CC90CC80CD00BC3
:101D9600C52E0130D0005008DA07852F4B08803A4F
:101DA600FF004F08803A7F02031DE32E4E084A02C9
:101DB600031DE32E4D084902031DE32E4C0848027D
:101DC6000318E62EE72E3F2FFF30D000FF30D1005C
:101DD600FF30D200FF30D3004C08D4004D08D500A8
:101DE6004E08D6004F08D7004808D4024908031CFD
:101DF600490FFE2EFF2ED5024A08031C4A0F042F58
:101E0600052FD6024B08031C4B0F0A2F0B2FD702A8
:101E16005408D00755080318550F122F132FD10752
:101E260056080318560F182F192FD20757080318EC
:101E3600570AD3075308CB005208CA005108C900F5
:101E46005008C8008030D0005008D806DB09DB0AED
:101E56005B08031D2F2F302F4D2F0130C807003090
:101E660003180130C907003003180130CA070030D3
:101E760003180130CB074D2F4C08C8024D08031C30
:101E86004D0FC9024E08031C4E0FCA024F08031C11
:101E96004F0FCB024B084A0449044804031D542F34
:101EA600552F812F5B08031D592F5A2F812F003084
:101EB600CB000030CA000030C9000030C800FF2F38
:101EC6000130D0000310C80DC90DCA0DCB0DD00BC3
:101ED600652FDB1F6F2F702F712F48145B1C742F1B
:101EE600752F782F0314DB0D7A2F0310DB0D5A089C
:101EF60003197E2F7F2F812F0130DA02CA1F842F0C
:101F0600852F632FD901DB1F892F8A2F982F5B0816
:101F16007F3903198F2F902F932FD901D90A982F24
:101F2600481C962F972F982F902F590803199C2FEE
:101F36009D2FD12F0130C807003003180130C90783
:101F4600003003180130CA07003003180130CB07F0
:101F56004B1CAE2FAF2FD12F4808D0004908D10017
:101F66004A08D2004B08D3000130D400530DD30CDD
:101F7600D20CD10CD00CD40BB92F5308CB0052087D
:101F8600CA005108C9005008C8005A0A0319CC2FC4
:101F9600CD2FD12F0130D0005008DA075A0A031985
:101FA600D52FD62FDB2F5A08031DDA2FDB2FE92F6B
:101FB6000030CB000030CA000030C9000030C80035
:101FC6005A08031DE72FE82FE92FD8015A1CEC2FDA
:101FD600ED2FEF2FCA17F32F7F30D0005008CA0518
:101FE6005A08D0000310500CD1005108CB00D81F5E
:0A1FF600FD2FFE2FFF2FCB17080070
:1022F0000A168A11F5220A168A110A168A1131263F
:102300000A168A117D290A128A111228F100710811
:10231000831203178D00831603178C130C1483127A
:1023200003170C08F0007008F200720808007E081D
:102330008A007F0882000A168A1197210A168A11DC
:102340008000840A04087D0603190034FF0A03197B
:10235000FE0A9B29F1007008831203178D00710893
:102360008C00831603178C130C158B1355308D00BE
:10237000AA308D008C14831203130D1EC029C129AD
:10238000BB290D12831603170C118B130800F800DC
:10239000F401F5017008F200F3017208F600730809
:1023A000F700781CD429D529DB297608F40703180F
:1023B000F50A7708F50701300310F60DF70DFF3E1B
:1023C000031DDC290310F80C7808031DE829E9290E
:1023D000D1297508F1007408F00008008316031372
:1023E000A800A401A5012008A200A3012208A600BC
:1023F0002308A700281CFD29FE29042A2608A40773
:102400000318A50A2708A50701300310A60DA70D7C
:10241000FF3E031D052A0310A80C2808031D112ADE
:10242000122AFA292508A1002408A0000800033078
:1024300083120313E5008A30E4005530E300E30B18
:102440001F2AE40B1F2AE50B1F2A83120313ED0139
:102450000130E3006308ED076D08903E84008317A8
:1024600000089900413083120313E400ED30E300CB
:10247000E30B382AE40B382A3D2A49308312031330
:102480006D02031C442A452A282A8C1E482A492A00
:10249000452A0A168A1197220A168A110800203442
:1024A0000A344234693465346E34763465346E34BB
:1024B000693464346F342C342034703472346534AD
:1024C000733469346F346E346534203431342034DD
:1024D0007034613472346134203463346F346E3458
:1024E000743469346E347534613472342034633436
:1024F0006F346E3420346C346134203463346F3480
:102500006D3475346E3469346334613463346934E2
:102510006F346E342034733465347234693461340A
:102520006C340A3400340034003400340034831234
:1025300003131A08E000600883160317D800E22A84
:10254000033083120313E2008A30E1005530E000CB
:10255000E00BA82AE10BA82AE20BA82A8312031396
:10256000ED010130E0006008ED076D08103E8400C9
:10257000831700089900413083120313E100ED3006
:10258000E000E00BC12AE10BC12AC62A3D308312CC
:1025900003136D02031CCD2ACE2AB12A8C1ED12A28
:1025A000D22ACE2A83160317D8010A168A115D246F
:1025B0000A168A11F42A8316031398128316031736
:1025C000D801F42A580883120313E000E1016108DE
:1025D000003A0319EC2AF42A6008313A0319A02AB8
:1025E000033A0319DB2AF42A08001F308316031765
:1025F000880089011F308316031385000614861492
:102600000615803087008801831203138501860137
:1026100087018801FF30831603139600811307306A
:10262000950008308100B0308312031381008B17AE
:102630000B178B160B118B150B10831603130F142E
:102640000F178F160F12831203138C10263092006F
:10265000C3309F051F08C33908389F0020308316F8
:102660000313A000A00B322B0000831603130C17DA
:10267000831203130C131F141F083F3940389F00A7
:10268000831603139F131F129F12FA3092000C300F
:102690008312031397000F309D008C1283160313CF
:1026A0008C120C1218139816181218158312031393
:1026B00018131816981783160317871119308316E5
:1026C0000313990001309A000800031083120313CA
:1026D000500D510DD2005208D8005808031D712B1F
:1026E000722B7B2B0030D1000030D0000030CF00A7
:1026F0000030CE00E02B4E08D2004F08D300500827
:10270000D4005108D5001F300310D50CD40CD30CC5
:10271000D20CFF3E031D842B5208D6005608D7006A
:10272000D017FF30CE05FF30CF05FF30D005003089
:10273000D1059630D802D81F9E2B9F2BB92B580855
:10274000803A973E0318A52BA62BA72B722B01309E
:102750000310D10CD00CCF0CCE0CFF3E031DA82BC8
:102760000130D2005208D807031DB72BB82BA72B76
:10277000D02B20305802031CBE2BBF2BCB2B722B2F
:102780000130D2000310CE0DCF0DD00DD10DD20BE4
:10279000C22B0130D8025808031DCF2BD02BC02BE1
:1027A00057080319D42BD52BE02BCE09CF09D0091C
:1027B000D109CE0A0319CF0A0319D00A0319D10A85
:1027C00008000310831603135E0D5F0DE000600820
:1027D000E6006608031DED2BEE2BF72B0030DF0023
:1027E0000030DE000030DD000030DC005C2C5C08D6
:1027F000E0005D08E1005E08E2005F08E3001F30D2
:102800000310E30CE20CE10CE00CFF3E031D002C76
:102810006008E4006408E500DE17FF30DC05FF30E7
:10282000DD05FF30DE050030DF059630E602E61FED
:102830001A2C1B2C352C6608803A973E0318212C45
:10284000222C232CEE2B01300310DF0CDE0CDD0CD0
:10285000DC0CFF3E031D242C0130E0006008E6077D
:10286000031D332C342C232C4C2C20306602031CEB
:102870003A2C3B2C472CEE2B0130E0000310DC0DF2
:10288000DD0DDE0DDF0DE00B3E2C0130E6026608AB
:10289000031D4B2C4C2C3C2C65080319502C512C3F
:1028A0005C2CDC09DD09DE09DF09DC0A0319DD0A1D
:1028B0000319DE0A0319DF0A0800831203131A083A
:1028C000DE005E0883160317D800D32C0A128A1183
:1028D000C9270A168A113030831203131A02031C07
:1028E000722C732CEB2C3A301A020318782C792CAA
:1028F000EB2C1A08DE005E0883160313EF000A12A1
:102900008A151D210A168A11EB2C0A128A11C92771
:102910000A168A113030831203131A02031C912CF9
:10292000922CEB2C3A301A020318972C982CEB2C93
:102930001A08DE005E0883160313EE007F2C0A12CD
:102940008A11C9270A168A113030831203131A021A
:10295000031CAB2CAC2CEB2C3A301A020318B12C14
:10296000B22CEB2C1A08DE005E0883160313ED0070
:102970007F2C0A128A11C9270A168A113030831255
:1029800003131A02031CC52CC62CEB2C3A301A0276
:102990000318CB2CCC2CEB2C1A08DE005E08831617
:1029A0000313EC007F2C580883120313DE00DF01B1
:1029B0005F08003A0319DD2CEB2C5E08313A03194D
:1029C000662C033A0319852C013A03199F2C073A08
:1029D0000319B92CEB2C08000C1FEF2CF02C282D20
:1029E0000D2D1E08E600660883160313EF00262D42
:1029F0001E08E600660883160313EE00262D1E0847
:102A0000E600660883160313ED00262D1E08E60077
:102A1000660883160313EC00262D1F0CE600660CD7
:102A20000F39E700E8016808003A0319182D262D30
:102A30006708003A0319F12C013A0319F82C033AFC
:102A40000319FF2C013A0319062D262D83120C13AE
:102A50000B1D2B2D2C2D522D0130E6006608EF07A3
:102A60006F086E02031C352D362D382D8715392D34
:102A700087116F08831603176002031C402D412D38
:102A8000452D831203130716482D831203130712D3
:102A9000FA306F02031C4D2D4E2D4F2DEF01B0303B
:102AA00081000B110B1C552D562D252E0619592D65
:102AB0005A2D712D83160317D901D90A672D831654
:102AC000031398160A168A1117220A168A118316FA
:102AD0000317590303196D2D6E2D5F2D83160313F4
:102AE000981283120618752D762DBA2D08148810A9
:102AF0001030E6006608F000831603175B080A161C
:102B00008A11AA210A168A11113083120313E600D2
:102B10006608F000831603175A080A168A11AA21BC
:102B20000A168A11123083120313E6006608F000B9
:102B30006E080A168A11AA210A168A111330831206
:102B40000313E6006608F0008316031760080A16F0
:102B50008A11AA210A168A11033083120313E8008E
:102B60008A30E7005530E600E60BB42DE70BB42DB4
:102B7000E80BB42D831203138618BF2DC02D242E0D
:102B80001F100810881410300A168A1186210A16A0
:102B90008A1183120313E600660883160317DF0009
:102BA00011300A168A1186210A168A11831203131C
:102BB000E600660883160317DE0012300A168A1133
:102BC00086210A168A1183120313E600660883160B
:102BD0000317DD0013300A168A1186210A168A119E
:102BE00083120313E600660883160317DC005F08F0
:102BF000831203139500831603175E0883120313D1
:102C00009B00831603175D0883120313E600660812
:102C1000EE00831603175C0883120313E6006608B0
:102C200083160317E000103083120313E8003930D5
:102C3000E7000D30E600E60B1B2EE70B1B2EE80B22
:102C40001B2E831203131F140B108C106C08FF0033
:102C50006B088A006A088400690E8300FE0E7E0EEF
:102C60000900831203139F18362E372EFF2FE42FEF
:102C70006F08E700E801E901EA016A08A3006908B2
:102C8000A2006808A1006708A00001300A128A119A
:102C90000D270A168A11831603132308B50022088C
:102CA000B4002108B3002008B2003E30B1007C30EF
:102CB000B000ED30AF009130AE000A128A114B2007
:102CC0000A168A11831603133108CF003008CE008C
:102CD0002F08CD002E08CC004230CB007830CA003F
:102CE0000030C9000030C8000A128A1578250A167B
:102CF0008A11831603134B08DF004A08DE004908D7
:102D0000DD004808DC000A168A11E1230A168A1140
:102D1000831603135C0883120313950015088316AA
:102D20000313E700670883160317DB0083120313FE
:102D30001F08C33904389F00203083160313E700AF
:102D4000E70BA02E0000831203139F14FF2F6E08C1
:102D5000E700E801E901EA016A08A3006908A200A6
:102D60006808A1006708A00001300A128A110D2727
:102D70000A168A11831603132308B5002208B4002B
:102D80002108B3002008B2003D30B1004830B00047
:102D9000B430AF003930AE000A128A114B200A1647
:102DA0008A11831603133108CF003008CE002F0894
:102DB000CD002E08CC004030CB00E030CA000030FF
:102DC000C9000030C8000A128A1578250A168A112F
:102DD000831603134B08DF004A08DE004908DD00B4
:102DE0004808DC000A168A11E1230A168A118316A4
:102DF00003135C08EB006B0883160317E0008312D3
:102E000003131F08C33908389F0052308316031379
:102E1000E700E70B092F0000831203139F14FF2F15
:102E20006D08E700E801E901EA016A08A300690802
:102E3000A2006808A1006708A00001300A128A11E8
:102E40000D270A168A11831603132308B5002208DA
:102E5000B4002108B3002008B2003E30B1007C303D
:102E6000B000ED30AF009130AE000A128A114B2055
:102E70000A168A11831603133108CF003008CE00DA
:102E80002F08CD002E08CC004230CB007830CA008D
:102E90000030C9000030C8000A128A1578250A16C9
:102EA0008A11831603134B08DF004A08DE00490825
:102EB000DD004808DC000A168A11E1230A168A118F
:102EC000831603135C08831203139B001B088316ED
:102ED0000313E700670883160317DA00831203134E
:102EE0001F08C3390C389F00203083160313E700F6
:102EF000E70B782F0000831203139F14FF2F6C0839
:102F0000E700E801E901EA016A08A3006908A200F4
:102F10006808A1006708A00001300A128A110D2775
:102F20000A168A11831603132308B5002208B40079
:102F30002108B3002008B2003D30B1004830B00095
:102F4000B430AF003930AE000A128A114B200A1695
:102F50008A11831603133108CF003008CE002F08E2
:102F6000CD002E08CC004030CB00E030CA0000304D
:102F7000C9000030C8000A128A1578250A168A117D
:102F8000831603134B08DF004A08DE004908DD0002
:102F90004808DC000A168A11E1230A168A118316F2
:102FA00003135C08EB006B0883120313EE00C330BD
:102FB0009F05523083160313E700E70BDD2F000057
:102FC000831203139F14FF2F1F0C83160313E700B4
:102FD000670C0F39E800E9016908003A0319F12F7D
:102FE000FF2F6808003A0319382E013A0319A72E5B
:102FF000033A0319102F013A03197F2FFF2F0800FE
:04400E00D420FF3F7C
:00000001FF
