:020000040000FA
:060000000A128A110E280D
:10000800FE00030EF2000408F3000A08F4000A12C6
:100018008A1131280A128A11112883133530FD00FC
:100028000130FE00DD30FF002B3084000A128A11F7
:10003800CE210A128A110A128A11E7210A128A119C
:10004800F800B501B601B701B801B901BA01BB01A1
:10005800BC0183010A128A1171290B1D3428352825
:1000680070280B1164308312031381005C28890106
:100078003B082B3E840083130008870009140130D5
:10008800F0007008F8076F28890139082B3E8400B2
:1000980083130008870089144328890137082B3EF9
:1000A80084008313000887000915F801F80A6F28EF
:1000B8007808F000F1017108003A031964286F28E4
:1000C8007008013A03193B28033A03194828013AF2
:1000D800031951286F280B11831203130C1F75285D
:1000E80076288A281F0CF000700C0F39003A031D7F
:1000F8007E287F2882281E08860089281E08F0008E
:10010800F1017008B5007108B6000C1374088A0074
:1001180073088400720E8300FE0E7E0E090083129F
:1001280003132808AA002708A9006430A00000309B
:10013800A1002A08A3002908A2000A128A11F220A5
:100148000A128A11831203132108BC002008BB007D
:100158003C08A1003B08A0009C30A200FF30A3008F
:100168000A128A11A3210A128A1183120313290879
:100178002007A9002A0803182A0A2107AA000A301A
:10018800A0000030A1002A08A3002908A2000A1232
:100198008A11F2200A128A11831203132108BA0065
:1001A8002008B9003A08A1003908A000F630A200DA
:1001B800FF30A3000A128A11A3210A128A1183129E
:1001C800031329082007A9002A0803182A0A210767
:1001D800AA002A08B8002908B700080083120313E8
:1001E800A501A601200821040319FB28FC283329AE
:1001F800A401A40A0A2901300310A00DA10DFF3E95
:10020800031D00290130F5007508A407A11F0D2959
:100218000E29FF2801300310A50DA60DFF3E031D72
:100228000F2921082302031D1B2920082202031C71
:100238001E291F2926292008A2022108031CA3031E
:10024800A302251401300310A10CA00CFF3E031DCE
:1002580027290130A402031D322933290E29260833
:10026800A1002508A00008000530831603178800A0
:1002780089010530831603138500860187018901EA
:10028800831203138501860187018901D4308316FF
:1002980003138100831203131F141F08C33908387E
:1002A8009F002130F500F50B5729831203131F080F
:1002B8003F3940389F00831603139F131F129F1264
:1002C8000F140F178F160F128B178B160B110B1796
:1002D8000C17831203130C1308000A128A11382111
:1002E8000A128A11831203139F14831203139F188F
:1002F8007E297F2996291F0CF700770C0F39003AC1
:10030800031D872988298D291F08C33908389F00AC
:100318008F29C3309F052130F700F70B91298312ED
:1003280003139F143608A8003508A7000A128A117B
:1003380093200A128A1179290A128A110E28F501C6
:10034800F60183120313201CAA29AB29B12922081C
:10035800F5070318F60A2308F60701300310A20D63
:10036800A30DFF3E031DB22901300310A10CA00C00
:10037800FF3E031DB92920082104031DC429C529EE
:10038800A5297608A1007508A00008007E088A0043
:100398007F0882000A128A11CA210A128A11800073
:1003A800840A04087D0603190034FF0A0319FE0AAB
:1003B800CE293F3406345B344F3466346D347D3493
:0803C80007347F34673401346F
:04400E00D420FF3F7C
:00000001FF
