:020000040000FA
:100000000A128A11E42F00308A000408840A820749
:1000100000340D3420345034723465347334693410
:100020006F346E346534203465346C34203463347A
:10003000613472346134633474346534723420341E
:100040007034613472346134203464346534733410
:1000500070346C3465346734613472342034653400
:100060006E34203450344F345234543441343A34A2
:1000700020340D3400340D3420345034723465345F
:10008000733469346F346E346534203465346C34C1
:1000900020346334613472346134633474346534CD
:1000A00072342034703461347234613420346434F6
:1000B0006534733470346C3465346734613472344D
:1000C000203465346E34203450344F345234543438
:0A00D00042343A3420340D34003479
:100D58006034F000B12E70089900831203130C1E42
:100D6800B62EB72EAF2E08007E088A007F088200B4
:100D78000A128A11B8260A128A118000840A040805
:100D88007D0603190034FF0A0319FE0ABC2EF4007D
:100D98007030F1007108F200D72E73080A128A1118
:100DA800AD260A128A110130F407FF307407840057
:100DB8000A128A1103200A128A11F1007108F3003D
:100DC8007308031DE82EE92ED12E08000A128A1195
:100DD80009270A128A110330F9008A30F8005530C1
:100DE800F700F70BF52EF80BF52EF90BF52EFC2E68
:100DF80083120313A001A1010A128A1139270A12CA
:100E08008A11EF2E0A128A11002883160317880107
:100E18008901831603138501860107138717831237
:100E2800031385018601831603130F148B170B1701
:100E38000F178F160F12831203138C1283160313C6
:100E48008C160C12181398161812181583120313FF
:100E58001813181698178316031787111930831655
:100E68000313990001309A0008006F2F0C1E3D2FC4
:100E78003E2F842F0130F5007508FC077B307C027B
:100E8800031C472F482F4C2F6130F5007508FC00D4
:100E98007C08990020309900842F01300A128A11A9
:100EA800CB260A128A11831203131A08F500750853
:100EB800FB007B088500842F33300A128A11CB2669
:100EC8000A128A11831203131A08F5007508FA002A
:100ED8007A088600842F831203131A08F500F60196
:100EE8007608003A0319792F842F7508313A0319C7
:100EF8003A2F033A0319512F013A0319602F842F0F
:100F08000800BF3451347534653420346134633497
:100F1800633469346F346E34203464346534733424
:100F28006534613420347234653461346C34693426
:100F38007A34613472343F340D34313429342034F6
:100F480044346534733470346C34653467346134D4
:100F58007234203463346134643465346E346134FB
:100F68002034643465342034633461347234613439
:100F78006334743465347234653473340D34323404
:100F880029342034433461346D3462346934613433
:100F98007234203450344F345234543441340D3484
:100FA800333429342034433461346D346234693441
:100FB80061347234203450344F345234543442340F
:100FC8008317EF30FD000730FE008530FF009030BA
:100FD80084000A128A11BC260A128A110A128A117E
:100FE800AC260A128A11FC00A001A101FA01FB013A
:080FF80083010A128A11EA2E9E
:04400E00D420FF3F7C
:00000001FF
