:020000040000FA
:060000000A128A11DA2F3A
:100CDA007E088A007F0882000A128A116D260A128B
:100CEA008A118000840A04087D0603190034FF0A69
:100CFA000319FE0A712E20340D34563461346D34D2
:100D0A006F3473342034613420347334613463347F
:100D1A006134723420343134303430340D34003498
:100D2A008316031788018901831603138501860137
:100D3A00071387178312031385018601831603138A
:100D4A000F148B170B170F178F160F12831203131B
:100D5A008C12831603138C120C121813981618127D
:100D6A0018158312031318131816981783160317E6
:100D7A008711193083160313990001309A0008006D
:100D8A000A128A1195260A128A110330FB008A3048
:100D9A00FA005530F900F90BD02EFA0BD02EFB0BC6
:100DAA00D02ED72EF401F5010130F4070318F50A05
:100DBA000030F5077408903E8400831700088312F8
:100DCA00031399004130FA00EE30F900F90BEB2ECB
:100DDA00FA0BEB2E00007508803AFF0080307F0284
:100DEA00031DF92E60307402031CFC2EFD2ED92E31
:100DFA00831203138C1E022F032FFD2E0A128A114F
:100E0A006C270A128A11CA2E0A128A110028203463
:100E1A00513475346534203461346334633469344D
:100E2A006F346E3420346434653473346534613419
:100E3A0020347234653461346C3469347A34613400
:100E4A0072343F340D343134293420344434653417
:100E5A00733470346C3465346734613472342034DA
:100E6A0063346134643465346E34613420346434F8
:100E7A0065342034633461347234613463347434D5
:100E8A0065347234653473340D3432342934203481
:100E9A00433461346D3462346934613472342034D9
:100EAA0050344F345234543441340D3433342934A9
:100EBA002034433461346D346234693461347234B9
:100ECA00203450344F345234543442340D34831263
:100EDA0003131A08F600F7017608F0007708F10004
:100EEA00C92F0130F2070318F30A0030F30772081A
:100EFA00203E8400831300088312031399004130B3
:100F0A00F700EE30F600F60B882FF70B882F00005B
:100F1A007308803AFF0080307F02031D962F163037
:100F2A007202031C992F9A2F762FF201F301F00116
:100F3A00F101D92F0330F8008A30F7005530F60056
:100F4A00F60BA52FF70BA52FF80BA52FAC2F8312A5
:100F5A0003138C1EB12FB22FAC2F1A088500F00193
:100F6A00F101D92F4130F700EE30F600F60BBB2F16
:100F7A00F70BBB2F0000831203138C1EC52FC62F3D
:100F8A00C02F1A088600B42F7108003A0319CE2F11
:100F9A00D92F7008313A0319762F033A03199F2F74
:100FAA00013A0319B72FD92F08008317F030FD0033
:100FBA000730FE000C30FF00903084000A128A11BC
:100FCA0071260A128A1183133530FD000630FE009D
:100FDA008030FF00203084000A128A1171260A121A
:100FEA008A11F001F101F201F301F401F501830123
:060FFA000A128A11C52E47
:04400E00D420FF3F7C
:00000001FF
