:020000040000FA
:060000000A128A110C280F
:10000800FE00030EF0000A08F1000A128A116A289D
:100018000A128A110F280A128A1179200A128A11E3
:10002800F5000A128A117A200A128A11F600830151
:100038000A128A114C28831603178801890183162E
:10004800031385018601071387178312031385019C
:100058008601831603130F148B170B1783120313D0
:100068008C12831603138C160C1218139816181278
:1000780018158312031318131816981783160317E5
:100088008711193083160313990001309A0008006C
:100098000A128A111F200A128A110330F4008A30CA
:1000A800F3005530F200F20B5728F30B5728F40BE6
:1000B80057285E28831203130C1E632864285128CE
:1000C8006130990051280A128A110C2883120313EF
:1000D8008C1E6F28702872281A08850071088A00FB
:0E00E800700E8300FE0E7E0E0900613400349F
:04400E00D420FF3F7C
:00000001FF
