:020000040000FA
:060000000A128A1110280B
:10000800FE00030E83120313DB000A08DC007F08DE
:10001800DD000A128A11062E0A128A111328831289
:100028000313DE01DF01E001E10183010A128A15F1
:100038004D2F8312031323088039A8002808AD0028
:100048002308A8002807A9002908B300A21F2D2803
:100058002E282F283314330803193328342843282B
:10006800330A031D3828392841280030A3000030FE
:10007800A2000030A1000030A000A2174B280030D9
:10008800A3000030A2000030A1000030A000270823
:100098008039A8002808AD062708A8002807A90065
:1000A8002908B200A61F59285A285B28321432089A
:1000B80003195F2860286F28320A031D6428652801
:1000C8006D280030A7000030A6000030A5000030E1
:1000D800A400A61777280030A7000030A60000303B
:1000E800A5000030A400320803197B287C28812849
:1000F8003308031D802881288A280030A300003097
:10010800A2000030A1000030A0007D2B2008A8002C
:100118002808F00026080A128A11CD270A128A1127
:10012800710883120313B9007008B8003808A800D2
:10013800A901AA01AB012B08B1002A08B0002908BF
:10014800AF002808AE003908A800A901AA01AB0130
:100158002B08B7002A08B6002908B5002808B400FB
:100168002108A8002808F00025080A128A11CD27BE
:100178000A128A11710883120313B9007008B800B3
:100188003808A800A901AA01AB012808AE07290868
:1001980003110318013E0319D228AF072A080311D7
:1001A8000318013E0319D928B0072B0803110318B7
:1001B800013E0319E028B1073908A800A901AA01DE
:1001C800AB012808B407290803110318013E0319D5
:1001D800EE28B5072A0803110318013E0319F5286C
:1001E800B6072B0803110318013E0319FC28B707AB
:1001F8002208A8002808F00024080A128A11CD272E
:100208000A128A11710883120313B9007008B80022
:100218003808A800A901AA01AB012808AE072908D7
:1002280003110318013E03191A29AF072A080311FD
:100238000318013E03192129B0072B0803110318DD
:10024800013E03192829B1073908A800A901AA0104
:10025800AB012808B407290803110318013E031944
:100268003629B5072A0803110318013E03193D2949
:10027800B6072B0803110318013E03194429B707D1
:100288000830A8000310AE0DAF0DB00DB10DA80BCE
:1002980046292108A8002808F00024080A128A1113
:1002A800CD270A128A11710883120313B900700846
:1002B800B8003808A8003908A900AA01AB01280825
:1002C800AE07290803110318013E03196C29AF076B
:1002D8002A0803110318013E03197329B0072B08D4
:1002E80003110318013E03197A29B1072008A80051
:1002F8002808F00025080A128A11CD270A128A1147
:10030800710883120313B9007008B8003808A800F0
:100318003908A900AA01AB012808AE07290803116A
:100328000318013E03199929AF072A080311031876
:10033800013E0319A029B0072B0803110318013E39
:100348000319A729B1070830A8000310AE0DAF0D97
:10035800B00DB10DA80BA9292008A8002808F000A5
:1003680024080A128A11CD270A128A1171088312E9
:100378000313B9007008B8003808A8003908A900A4
:10038800AA01AB012808AE07290803110318013E8A
:100398000319CF29AF072A0803110318013E0319CF
:1003A800D629B0072B0803110318013E0319DD29CC
:1003B800B1072108A8002808F00026080A128A11A7
:1003C800CD270A128A11710883120313B900700825
:1003D800B8003808A8003908A900AA01AB01280804
:1003E800B407290803110318013E0319FC29B507AE
:1003F8002A0803110318013E0319032AB6072B081C
:1004080003110318013E03190A2AB7072208A80096
:100418002808F00025080A128A11CD270A128A1125
:10042800710883120313B9007008B8003808A800CF
:100438003908A900AA01AB012808B4072908031143
:100448000318013E0319292AB5072A0803110318BE
:10045800013E0319302AB6072B0803110318013E81
:100468000319372AB7072208A8002808F000260829
:100478000A128A11CD270A128A11710883120313EE
:10048800B9007008B8003808A8003908A900AA01FE
:10049800AB0108300310A80DA90DAA0DAB0DFF3E46
:1004A800031D4E2A2808B407290803110318013E22
:1004B80003195F2AB5072A0803110318013E031917
:1004C800662AB6072B0803110318013E03196D2A83
:1004D800B7072E08A8002F08A9003008AA0031087D
:1004E800AB0018300310AB0CAA0CA90CA80CFF3EEB
:1004F800031D762A2808B407290803110318013EAA
:100508000319872AB5072A0803110318013E03199E
:100518008E2AB6072B0803110318013E0319952AE2
:10052800B7070830A8000310AE0DAF0DB00DB10D20
:10053800A80B972A33083207A800A901A90D280893
:10054800823EB80029080318013EFF3EB900C92AB7
:100558000130A8000310B40DB50DB60DB70DA80BEA
:10056800AE2AB11FB82AB92ABA2A34140130A80011
:100578000310AE0DAF0DB00DB10DA80BBC2AFF30A6
:10058800B8070318B90AFF30B907B61FCC2ACD2A15
:10059800AC2AB201B11FD12AD22AEE2AFF302E0589
:1005A800A800FF302F05A900FF303005AA007F30D2
:1005B8003105AB002B082A04290428040319E52A6D
:1005C800E62AE92AB201B20AEE2A341CEC2AED2AFC
:1005D800EE2AE62A32080319F22AF32A242B0130DC
:1005E800B407003003180130B50700300318013094
:1005F800B607003003180130B707371C042B052B4A
:10060800242B3408A8003508A9003608AA003708A2
:10061800AB000130AC002B0DAB0CAA0CA90CA80C3C
:10062800AC0B0F2B2B08B7002A08B6002908B50019
:100638002808B4000130B8070318B90A0030B90710
:100648003908803AFF0080307F02031D2D2BFF30D0
:100658003802031C302B312B3C2B7F3083120313C1
:10066800B7008030B6000030B5000030B400712B00
:10067800831203133908803AFF0080307F02031D7C
:10068800472B0130380203184A2B4B2B572B0030CD
:1006980083120313B7000030B6000030B5000030F5
:1006A800B400AD01712B831203133808A800280881
:1006B800B300FF30B405FF30B5057F30B605003014
:1006C800B705331C682B692B6A2BB6173308A800AB
:1006D8000310280CA9002908B7002D08A80028082D
:1006E800B7043708A3003608A2003508A10034086B
:1006F800A0000800831203133D088039C200420895
:10070800CA003D08C2004207C3004308CC00BC1F12
:100718008E2B8F2B902B4C144C080319942B952B54
:10072800A52B4C0A031D992B9A2BA22B0030BD0038
:100738000030BC000030BB000030BA00BC17BD015F
:10074800AD2B0030BD000030BC000030BB000030D5
:10075800BA0041088039C2004208CB004B084A065B
:100768000319B72BB82BB92B4A174108C200420707
:10077800C3004308CB00C01FC22BC32BC42B4B1490
:100788004B080319C82BC92BD92B4B0A031DCD2B9A
:10079800CE2BD62B0030C1000030C0000030BF0087
:1007A8000030BE00C017C101E12B0030C10000308D
:1007B800C0000030BF000030BE004C084B020318D8
:1007C800E62BE72B2B2C4A1FEA2BEB2BEF2B803049
:1007D800C2004208CA064C08C2004208CD004B08B5
:1007E800C2004208CC004D08C2004208CB003A08BB
:1007F800C2004208CD003E08C2004208BA004D08B7
:10080800C2004208BE003B08C2004208CD003F08B3
:10081800C2004208BB004D08C2004208BF003C08A5
:10082800C2004208CD004008C2004208BC004D0882
:10083800C2004208C0003D08C2004208CD0041087D
:10084800C2004208BD004D08C2004208C100CD01E7
:100858004B08C200C3014308C5004C084202C4004B
:10086800031CC5034508803AFF0080307F02031D42
:100878003F2C1A304402031C422C432C802C831238
:1008880003133D083C043B043A04031D4C2C4E2C36
:1008980001304F2C0030C2004208CD000030BD00AE
:1008A8000030BC000030BB000030BA004B08C2006A
:1008B8004208CC00882C4D1C622C632C6C2C4D08F3
:1008C800C2000310420C0138C3004308CD006E2C4F
:1008D8000310CD0C3A1C712C722C732CCD170130DF
:1008E800C2003D0DBD0CBC0CBB0CBA0CC20B752C68
:1008F8000130C2004208CC07831203134B084C0294
:10090800031C872C882C5F2C4A1B8B2C8C2CD72CF7
:100918004C08031D902C912C9A2C0030BD000030FF
:10092800BC000030BB000030BA00052E3E08BA07F4
:100938003F0803110318013E0319A32CBB07400805
:1009480003110318013E0319AA2CBC07410803111F
:100958000318013E0319B12CBD073D1CB42CB52C5E
:100968008B2D4D1CB82CB92CC22C4D08C20003107D
:10097800420C0138C3004308CD00C42C0310CD0C31
:100988003A1CC72CC82CC92CCD170130C2003D0D0C
:10099800BD0CBC0CBB0CBA0CC20BCB2C0130C2007A
:1009A8004208CC078B2D3D08803AFF004108803A69
:1009B8007F02031DE92C40083C02031DE92C3F0877
:1009C8003B02031DE92C3E083A020318EC2CED2CDF
:1009D800452DFF30C200FF30C300FF30C400FF3098
:1009E800C5003E08C6003F08C7004008C8004108C7
:1009F800C9003A08C6023B08031C3B0F042D052D0D
:100A0800C7023C08031C3C0F0A2D0B2DC8023D08E9
:100A1800031C3D0F102D112DC9024608C2074708B7
:100A28000318470F182D192DC30748080318480F36
:100A38001E2D1F2DC40749080318490AC507450874
:100A4800BD004408BC004308BB004208BA0080301F
:100A5800C2004208CA06CD09CD0A4D08031D352D2E
:100A6800362D532D0130BA07003003180130BB076B
:100A7800003003180130BC07003003180130BD07EF
:100A8800532D3E08BA023F08031C3F0FBB02400823
:100A9800031C400FBC024108031C410FBD023D0866
:100AA8003C043B043A04031D5A2D5B2D872D4D0849
:100AB800031D5F2D602D872D0030BD000030BC0068
:100AC8000030BB000030BA00052E0130C200031010
:100AD800BA0DBB0DBC0DBD0DC20B6B2DCD1F752DF9
:100AE800762D772D3A144D1C7A2D7B2D7E2D0314EF
:100AF800CD0D802D0310CD0D4C080319842D852DA7
:100B0800872D0130CC02BC1F8A2D8B2D692DCB017E
:100B1800CD1F8F2D902D9E2D4D087F390319952DB2
:100B2800962D992DCB01CB0A9E2D3A1C9C2D9D2DDF
:100B38009E2D962D4B080319A22DA32DD72D0130DC
:100B4800BA07003003180130BB0700300318013022
:100B5800BC07003003180130BD073D1CB42DB52D6E
:100B6800D72D3A08C2003B08C3003C08C4003D0822
:100B7800C5000130C600450DC50CC40CC30CC20C21
:100B8800C60BBF2D4508BD004408BC004308BB0088
:100B98004208BA004C0A0319D22DD32DD72D0130A3
:100BA800C2004208CC074C0A0319DB2DDC2DE12DCD
:100BB8004C08031DE02DE12DEF2D0030BD00003065
:100BC800BC000030BB000030BA004C08031DED2DFE
:100BD800EE2DEF2DCA014C1CF22DF32DF52DBC176F
:100BE800F92D7F30C2004208BC054C08C200031032
:100BF800420CC3004308BD00CA1F032E042E052E55
:100C0800BD1708000C1F092E0A2EC32E1F0CD90071
:100C1800590C0F39003A031D122E132E6B2E1E0885
:100C2800D900DA015908E0005A08E1006008F0002C
:100C38006108F1000030F11BFF30F200F3000130D1
:100C48000A128A11CC260A128A1173088312031316
:100C5800A7007208A6007108A5007008A4003E301D
:100C6800A3007C30A200ED30A1009130A0000A1250
:100C78008A111D200A128A11831203132308C10046
:100C88002208C0002108BF002008BE004230BD0075
:100C98007830BC000030BB000030BA000A128A115C
:100CA8007E230A128A11831203133D08D1003C08DF
:100CB800D0003B08CF003A08CE000A128A158427D4
:100CC8000A128A11831203134E089500C22E1E08B9
:100CD800D900DA015908DE005A08DF005E08F00082
:100CE8005F08F1000030F11BFF30F200F300013023
:100CF8000A128A11CC260A128A1173088312031366
:100D0800A7007208A6007108A5007008A4003E306C
:100D1800A3007C30A200ED30A1009130A0000A129F
:100D28008A111D200A128A11831203132308C10095
:100D38002208C0002108BF002008BE004230BD00C4
:100D48007830BC000030BB000030BA000A128A11AB
:100D58007E230A128A11831203133D08D1003C082E
:100D6800D0003B08CF003A08CE000A128A15842723
:100D78000A128A11831203134E089B000C135D0894
:100D8800FF005C088A005B0E8300FE0E7E0E0900E1
:100D9800F80078080319D12ED22EE62EF31FD52E8F
:100DA800D62EE62E7009FA007109FB007209FC00C4
:100DB8007309FD00FA0A0319FB0A0319FC0A03194F
:100DC800FD0AEE2E7308FD007208FC007108FB0096
:100DD8007008FA007308720471047004031DF52E7C
:100DE800F62EFF2E0030F3000030F2000030F10044
:100DF8000030F000852F9630F4007408F900112FA8
:100E08000130F4007408F90701300310FD0CFC0CE4
:100E1800FB0CFA0CFF3E031D092FFE307D05031D58
:100E2800162F172F042F332F0130F4007408F907F9
:100E38000130FA07003003180130FB0700300318AF
:100E48000130FC07003003180130FD0701300310A2
:100E5800FD0CFC0CFB0CFA0CFF3E031D2B2FFF3086
:100E68007D05031D382F392F182F452F0130F90222
:100E78000130F4000310FA0DFB0DFC0DFD0DF40B11
:100E88003E2FFC1B482F492F4F2F023079020318A1
:100E98004E2F4F2F3A2F7918522F532F5B2FFF3099
:100EA800FA05FF30FB057F30FC05FF30FD05031018
:100EB800F90C7908F400F501F601F7011830031070
:100EC800F40DF50DF60DF70DFF3E031D632F7408A5
:100ED800FA047508FB047608FC047708FD04780812
:100EE8000319772F782F7D2FF31F7B2F7C2F7D2FD2
:100EF800FD177D08F3007C08F2007B08F1007A08F2
:100F0800F0000800053083160317880089010530B2
:100F18008316031385008701831203138501870154
:100F2800831603130F140F178F160F128312031350
:100F38008C10263092008B170B17831603130C178F
:100F4800831203130C13C3309F051F08C3390838D5
:100F58009F00203083160313A000A00BB12F0000C0
:100F6800831203131F141F083F3940389F0083164C
:100F780003139F131F129F12FA3092000C30831232
:100F8800031397001D149D141D159D151D129D1208
:100F98000800F800F401F5017008F200F301720886
:100FA800F6007308F700781CDA2FDB2FE12F76089C
:100FB800F4070318F50A7708F50701300310F60D52
:100FC800F70DFF3E031DE22F0310F80C7808031DF0
:100FD800EE2FEF2FD72F7508F1007408F0000800E6
:101E9A000A128A1186270A128A15831203131F0C43
:101EAA0083160313A100210C0F39003A031D5E2F7C
:101EBA005F2F712F831203131F08C33908389F003D
:101ECA00C73083160313A1006A2FA10B692F6D2F48
:101EDA00831203139F14522FC330831203139F05D7
:101EEA00C73083160313A1007A2FA10B792F7D2FF8
:101EFA00831203139F14522F0A128A1110280310F7
:101F0A0083120313500D510DD2005208D8005808FD
:101F1A00031D902F912F9A2F0030D1000030D0004E
:101F2A000030CF000030CE00FF2F4E08D2004F08FD
:101F3A00D3005008D4005108D5001F300310D50C27
:101F4A00D40CD30CD20CFF3E031DA32F5208D6008B
:101F5A005608D700D017FF30CE05FF30CF05FF3027
:101F6A00D0050030D1059630D802D81FBD2FBE2F1C
:101F7A00D82F5808803A973E0318C42FC52FC62F6A
:101F8A00912F01300310D10CD00CCF0CCE0CFF3E98
:101F9A00031DC72F0130D2005208D807031DD62FC0
:101FAA00D72FC62FEF2F20305802031CDD2FDE2F2C
:101FBA00EA2F912F0130D2000310CE0DCF0DD00D94
:101FCA00D10DD20BE12F0130D8025808031DEE2F94
:101FDA00EF2FDF2F57080319F32FF42FFF2FCE0906
:101FEA00CF09D009D109CE0A0319CF0A0319D00A99
:061FFA000319D10A0800E2
:04400E00D420FF3F7C
:00000001FF
