:060000000A128A110D290D
:100008008B13A000030EA1000B1985210C1C1320D3
:100018008C187721210E8300A00E200E09006A217A
:10002800A30AE830230203190800A301A50A6430D3
:1000380025060319A50108002B088700881401303C
:100048002C2808002C088700881400302C28080069
:04005800A6000800F6
:100200008A010A1482073F3406345B344F34663463
:100210006D347D3407347F346734031383160F1431
:1002200020212B213C214C2155215B212B216421B4
:100230006A21722103138312A6219C2195211C2976
:10024000031783168801890103138316850187012B
:1002500008108810080003138312850186018701A6
:100260008801A001A101A201A301A401A901A50186
:10027000A601A701AB010800031383120B118B1613
:100280000B178B17031383160C148C140313831290
:100290000C108C1003110800640003138316D03077
:1002A0000105013881006421080003138312013025
:1002B00090006A21080003138312493092007221D2
:1002C000031383128C100800031383120630810875
:1002D0000B11080003138312FE308F000C308E00C8
:1002E0000C100800031383163230920008008C10A3
:1002F000A40A24087D3C031D0800A4010130A206C5
:10030000A2180514A21C051008006421A21C91214A
:10031000A21C080088010A128A1126182628A6188D
:100320002028881408148701080029080021AB0040
:100330002A080021AC000800AA010130A502031818
:10034000AA0A031C2715031CA50708002715A500EA
:10035000A9010A30A5020318A90A031CA714031C4B
:080360002711031CA50708008A
:04400E00D430FF3F6C
:00000001FF
