:060000000A128A1100291A
:1002000003178316880189010313831605148514C7
:1002100085118601870188010313831285018601F8
:1002200087018801640003138316D0300105043868
:100230008100031383160F168F160F170F14372123
:1002400005185921051C5B2185186221851C642134
:10025000452188000B1D2A293721FA302102031974
:100260003D2142210608070203196C2120290313AE
:100270008312833081080B110800860A061A860152
:1002800003110800A10A0B1108008A010A140708CB
:1002900082073F3406345B344F3466346D347D342A
:1002A00007347F34673477347C3439345E347934BE
:1002B000713420140800201C0800870A071A8701DF
:1002C000A0010800A0140800A01C080087030F303C
:1002D000071A8700A001080008308506860103116F
:0202E000080014
:04400E00D420FF3F7C
:00000001FF
